:020000040800F2
:100000007008002089010008910100089301000890
:100010009501000897010008990100080000000000
:100020000000000000000000000000009B0100082C
:100030009D010008000000009F010008A1010008C8
:10004000A3010008A3010008A3010008A301000800
:10005000A3010008A3010008A3010008A3010008F0
:10006000A3010008A3010008A3010008A3010008E0
:10007000A3010008A3010008A3010008A3010008D0
:10008000A3010008A3010008A3010008A3010008C0
:10009000A3010008A3010008A3010008A3010008B0
:1000A000A3010008A3010008A3010008A3010008A0
:1000B000A3010008A3010008A3010008A301000890
:1000C000A3010008A3010008A3010008A301000880
:1000D000A301000875050008C5050008A301000874
:1000E000A3010008A3010008A301000800F002F822
:1000F00000F03AF80AA090E8000C82448344AAF188
:100100000107DA4501D100F02FF8AFF2090EBAE885
:100110000F0013F0010F18BFFB1A43F0010318473B
:10012000A4130000C4130000103A24BF78C878C19B
:10013000FAD8520724BF30C830C144BF04680C60ED
:10014000704700000023002400250026103A28BF35
:1001500078C1FBD8520728BF30C148BF0B60704739
:100160001FB51FBD10B510BD00F0F1F81146FFF727
:10017000F7FF00F017FB00F00FF903B4FFF7F2FFF1
:1001800003BC00F013F90000094880470948004704
:10019000FEE7FEE7FEE7FEE7FEE7FEE7FEE7FEE737
:1001A000FEE7FEE704480549054A064B7047000094
:1001B00015050008ED0000087002002070080020FE
:1001C0007004002070040020032A40F2308010F0F8
:1001D000030C00F0158011F8013BBCF1020F6244E2
:1001E00098BF11F801CB00F8013B38BF11F8013B73
:1001F000A2F1040298BF00F801CB38BF00F8013B20
:1002000011F0030300F02580083AC0F0088051F88F
:10021000043B083A51F804CBA0E80810F5E7121D9A
:100220005CBF51F8043B40F8043BAFF30080D207B9
:1002300024BF11F8013B11F801CB48BF11F8012B85
:1002400024BF00F8013B00F801CB48BF00F8012BA8
:10025000704710B5203AC0F00B80B1E81850203A32
:10026000A0E81850B1E81850A0E81850BFF4F5AF56
:100270005FEA027C24BFB1E81850A0E8185044BFE0
:1002800018C918C0BDE810405FEA827C24BF51F84D
:10029000043B40F8043B08BF7047D20728BF31F841
:1002A000023B48BF11F8012B28BF20F8023B48BF92
:1002B00000F8012B70474FF000020429C0F01280B3
:1002C00010F0030C00F01E80CCF1040CBCF1020F06
:1002D00018BF00F8012BA8BF20F8022BA1EB0C01DE
:1002E00000F010B85FEAC17C24BF00F8012B00F8D1
:1002F000012B48BF00F8012B7047704770477047CB
:100300004FF0000200B5134694469646203922BFAE
:10031000A0E80C50A0E80C50B1F12001BFF4F7AFF9
:10032000090728BFA0E80C5048BF0CC05DF804EBDB
:10033000890028BF40F8042B08BF704748BF20F849
:10034000022B11F0804F18BF00F8012B7047754643
:1003500000F028F8AE4605006946534620F0070035
:10036000854618B020B5FFF71DFFBDE820404FF0CF
:1003700000064FF000074FF000084FF0000B21F08F
:100380000701AC46ACE8C009ACE8C009ACE8C0095C
:10039000ACE8C0098D4670470446AFF300802046A4
:1003A000FFF7EBFE004870471002002001491820BB
:1003B000ABBEFEE7260002007047000070B50021CA
:1003C00000230F22C47804B3154C246804F4E064BD
:1003D000C4F5E064210AC1F10403CA40447804FA78
:1003E00003F184781440214309010E4C0678A1558D
:1003F000047804F01F050124AC4005786D11AD00B0
:1004000005F1E025C5F8004109E0047804F01F0576
:100410000124AC40044D0678761145F8264070BDA5
:100420000CED00E000E400E080E100E010B500F039
:1004300001F810BD0CB50020019000903348006811
:1004400040F480303149086000BF3048006800F453
:10045000003000900198401C0190009818B9019854
:10046000B0F5A06FF1D12948006800F4003010B158
:100470000120009001E0002000900098012843D165
:100480002348006840F010002149086008460068D1
:1004900020F0030008600846006840F00200086091
:1004A0001A4840681949486008464068486008464C
:1004B000406840F4806048600846406820F47C1042
:1004C00048600846406840F4E81048600846006804
:1004D00040F08070086000BF0C48006800F00070B9
:1004E0000028F9D00948406820F003000749486017
:1004F0000846406840F00200486000BF034840687A
:1005000000F00C000828F9D10CBD000000100240DA
:100510000020024010B51348006840F00100114966
:10052000086008464068104908400E49486008467F
:1005300000680E4908400B4908600846006820F42E
:10054000802008600846406820F4FE0048604FF4B0
:100550001F008860FFF76AFF4FF0006004490860E1
:1005600010BD0000001002400000FFF8FFFFF6FE83
:1005700008ED00E00F48008800F02000C8B10D48E9
:10058000001D00880C490D4A128888540B480088C9
:10059000401C0A4908800888C11700EB1161091244
:1005A000A0EB0121054A118005480088401C044940
:1005B0000880704700380140100000200200002031
:1005C000040000201048008800F02000D0B10E4840
:1005D000001D00880D490E4A128888540C48008876
:1005E000401C0B4908800B480088401C09490880C2
:1005F00007490888C11700EB11610912A0EB01211E
:10060000034A1180704700000044004010010020A0
:100610000C0000200E00002000214FF0E0221161AC
:10062000C0F3CF01074A11801146098801EB41024E
:10063000C2EBC1114FF6FF7202EAC101024A1180FA
:10064000704700000600002008000020B0F5E16FB0
:1006500001D94FF4E160104A128850434FF0E02274
:10066000126922F001024FF0E0231A611A4650612C
:1006700000229A611A46126942F001021A6100BF13
:100680004FF0E02211690129FAD0126922F001022B
:100690004FF0E0231A617047080000202DE9F04177
:1006A00005460E4600220C4B2846314600F0F8FC69
:1006B000074600F0B5FC044605E04FF4E160FFF7A3
:1006C000C5FFA4F5E164B4F5E16FF6D82046FFF765
:1006D000BDFFBDE8F081000000408F4010B586B03E
:1006E000044613A000680590142212496846FFF7DB
:1006F000B0FD2078032802D0052815D108E0062196
:100700000DA000F0ADF8E178201D00F0A9F80BE095
:100710006420FFF79BFF0C21684600F06BFA002075
:100720000749FFF7BBFF00BF00BF06B010BD0000C8
:1007300001000000B0140008626F617264330000B1
:100740000000F83F1248806940F0050010498861B8
:100750001048406840F000700E4948600E4800683C
:100760000E4908400C490860084600680C490843D7
:100770000949086008480830006820F4004006492C
:10078000083108600846006840F4C85008607047A7
:10079000001002400000014004080140F00FF00F7B
:1007A0000330033094B01422144906A8FFF751FD1A
:1007B00014221249143101A8FFF74BFD4820FFF71E
:1007C0002BFFFFF7BFFF4FF46141482000F064F8B2
:1007D0004FF46141242000F073F90DE00BA800F004
:1007E0000FF804462CB93220FFF730FF0BA8FFF7B3
:1007F00075FF6420FFF72AFFF0E700008814000867
:1008000030B58DB005460121684600F0E5F8C4B268
:1008100014B901200DB030BD2146684600F020F823
:100820009DF80000AA2803D19DF80100BB2801D043
:100830000220EFE724212846FFF73DFDE21E0DF1DF
:1008400005012846FFF7C0FCE01E1DF8000085F8F2
:100850002200A01E1DF8000085F823000020D9E723
:1008600010B502460B46002405E0107800F006F8AB
:10087000521C601C84B29C42F7DB10BD00BF0549CE
:10088000098801F080010029F9D00249091D08807A
:1008900070470000003801402DE9F34F85B08B46CA
:1008A0004FEA0B1000F0E9FB06460F46059800F0F2
:1008B000E4FB80460022424B00F0F2FB32463B460E
:1008C000CDE9000100F054FA04460D4620462946C1
:1008D00000F0A6FB1FFA80FA504600F0CEFB064659
:1008E00022462B4600F0DAFC0022364BCDE900010F
:1008F00000F0D6FB804600F093FB80B20290029895
:100900006AF31F101FFA80FA2F48806944F204012D
:1009100008432D4988610846406940F0010048615C
:100920002A48006820F47F6028490860084600686B
:1009300040F40B60086025480830006840F480608F
:100940002249083108602248A0F800A0001D008854
:1009500040F00C001E49091D08800846008840F43C
:10096000005008800846008840F0200008801848A1
:100970000C30008840F0800015490C310880144884
:10098000001F1449C864002008658864486408464C
:10099000406C41F2900108430E49486425208DF8CF
:1009A0000C0003208DF80D008DF80E0001208DF84D
:1009B0000F0003A8FFF702FD07B0BDE8F08F0000AD
:1009C00080842E41000030400010024004080140A5
:1009D0000838014000000240F0B502460C46344899
:1009E0000388008808B90020F0BDF4B90020304E1B
:1009F0003080002115E02F482F4E3688805D107022
:100A0000521C2D480088401C2B4E30803088C61761
:100A100000EB16663612A0EB0626274F3E80481CD8
:100A200081B29942E7DB1846DEE72348018800BF20
:100A30000846CE1701EB16663612A1EB0626B1B2B8
:100A40001C48405CFF2806D11A4E481C305CFF2829
:100A500001D1012507E019480088814200D102E058
:100A6000481C81B2E4E700BF0DB90020BCE7104884
:100A7000038800200E4E3080002115E00D480E4EF8
:100A80003688805D1070521C0B480088401C0A4E4E
:100A900030803088C61700EB16663612A0EB0626AB
:100AA000054F3E80481C81B29942E7DB18469BE720
:100AB0000E000020100100200A0000200C00002081
:100AC0002DE9F04F85B081468A46444809FB00F085
:100AD0004FEA0A11B0FBF1F7384600F0CEFA0546AE
:100AE0000E462846314600F09BFA84B2204600F0BC
:100AF000C4FA2A463346CDE9000100F0CFFB0022BC
:100B0000374BCDE9020100F0CBFA074600F088FA36
:100B10008346584664F31F1084B23248806940F01F
:100B20000400304988610846C06940F40030C8615B
:100B30000846406940F0010048612B48006820F4F5
:100B40007F40294908600846006840F40B4008606F
:100B500025480C30006840F0080023490C3108603B
:100B600022480480001D008842F22C0108431F49DE
:100B7000091D08801D480C30008840F080001B498A
:100B80000C31088000201A4908601848001F1849D5
:100B90008039C1F88800002015490C3108601449DB
:100BA0008039C1F884001248006842F2900108437D
:100BB0000F498039C1F8800026208DF810000220EE
:100BC0008DF8110003208DF8120001208DF813001C
:100BD00004A8FFF7F3FB05B0BDE8F08F40420F001B
:100BE000000030400010024000080140084400406E
:100BF00080000240094A126822F00102074B803B44
:100C0000C3F880201A46C2F88C00C2F88410D2F8CB
:100C1000802042F00102C3F880207047800002402B
:100C200010B591EA030F48BF83F0004300F14A83F7
:100C3000841A71EB030C05D2121943EB0C03001B51
:100C400061EB0C01DFF824E14FEA1154A4EB135CD3
:100C50001EEA430F18BF9EEA445F73D023EA0E03D7
:100C6000DCF1200E21EA045143F4801332D322FA3E
:100C70000CFE10EB0E0023FA0CFE41EB0E01CCF142
:100C8000200E03FA0EFE10EB0E0051F10001B1F53B
:100C9000801FCCF1200E32D201EB045112FA0EF279
:100CA000BDE8104058BF7047401C38BF5FEA4202A1
:100CB00018BF7047002814BF20F0010041F1000167
:100CC0004FEA410313F5001F38BF7047A1F1C0413F
:100CD00000F0DEBA012A43EB0302ACF1200CDCF198
:100CE0001F0E32BF4FF0000E23FA0CF310EB03007F
:100CF00041EB0451B4EB115FD0D0A1EB045101F5ED
:100D0000801149085FEA300001EB04510ED350F125
:100D1000000038BF12FA0EFE08D1BDE81040C9E746
:100D2000401C38BF5FEA4202CAD1C3E7BDE81040A9
:100D30004FEA410313F5001F38BF7047A1F1C041CE
:100D400000F0A6BA9EEA445F08D011EA5E0FBDE843
:100D5000104004BF01F0004100207047BDE8104082
:100D600070B500F047FA00BF64FBBE3E0000E0FF34
:100D70002DE9C04130B4DFF8A0C23CEA111418BF1D
:100D80003CEA131400F0EC8081EA03051CEA11141C
:100D900044EAD57418BF1CEA131500F0C780A4EB11
:100DA00005044FF0004545EAC12145EAC32341EA65
:100DB000505143EA525304F17F74994204F50034D0
:100DC0004FEAC0204FEAC22208BF904200F09C8048
:100DD0004FEA13650FF24016765D4FEA134506FBA6
:100DE00005F7C7F1807706FB07F74FEAD737A7FB70
:100DF00003687642C8F58038A7FB06CE38BFA8F155
:100E0000010807FB08E64FF0000EA6FB028CE6FB8C
:100E100003CEDCF1000CCEF1004E38BFAEF1010E76
:100E2000A6FB0C584FF000074FF00005E6FB0E87BD
:100E3000A1FB08C6A0FB07CE16EB0E0645F1000588
:100E4000E1FB076515F1E04E7EBFA4F580345FEA53
:100E500046066D4116F1800745F100054FEA172758
:100E60004FEA066647EA0567A6F1DE46B6F1805FFF
:100E70004FEA15251FD9384624F0010C05EBC47143
:100E8000BCF1FE6F01EB0C1102D8F0BCBDE8008193
:100E900024425CBF01F5801E9EEAC47F02D4F0BCF0
:100EA000BDE80081244238D4F0BCA1F1C041BDE8C6
:100EB000004100F0EDB94FEAD22242EA43524FEA34
:100EC000D323A7FB02864FEAD02040EA415007FB1C
:100ED00003661EEA0E0F4FEAD12105FB026658BFDA
:100EE000A6EB0056B6EB00564FEA520E4EEAC37E12
:100EF00018EB0E0E56EB530EBDD518EB02085E41F3
:100F00007F1C55F10005B6E74FF480154FF0000740
:100F10004FF000064FF00008ADE7F0BC4FF00000C6
:100F200001F1C04101F00041BDE8008111EA0C1F50
:100F30000CEA131500D00CE013EA0C1F00F025801A
:100F40004FF00000F0BC81EA030101F00041BDE870
:100F50000081F0BCBDE8004181EA030100F098B9CE
:100F6000F0BCBDE8004170B500F044F9097EFC3EDC
:100F700000F007B881EA03014FF0000001F00041E2
:100F8000704781EA030100F083B9F0BCBDE800417D
:100F90004FF0000021497047FFFDFBF9F7F5F4F22F
:100FA000F0EEEDEBE9E8E6E4E3E1E0DEDDDBDAD804
:100FB000D7D5D4D3D1D0CFCDCCCBCAC8C7C6C5C462
:100FC000C2C1C0BFBEBDBCBBBAB9B8B7B6B5B4B379
:100FD000B2B1B0AFAEADACABAAA9A8A8A7A6A5A464
:100FE000A3A3A2A1A09F9F9E9D9C9C9B9A99999828
:100FF0009797969595949393929191908F8F8E8ECB
:101000008D8C8C8B8B8A8989888887878685858457
:1010100084838382828181800000FF070000F87F43
:101020004FEA1153A3F58063D3F11E03A8BFD3F198
:10103000200C08DB4FF0004242EAC12252EA505233
:1010400032FA03F0704709420BD4102BC4BF0020C2
:10105000704703F5787CBCF1FF3F05D04FF0FF30BF
:1010600070474FF00000704770B500F0C3F800BF44
:101070004992248000207047F0E7B0FA80F310FA1C
:1010800003F10AD0C3F11D0303F580634FEA415019
:101090004FEA035202EBD12170474FF00000704736
:1010A000DFF848C170B51CEA111E1EBF1CEA1315FB
:1010B0009EEA0C0F95EA0C0F00F06F8081EA0304A2
:1010C00023EA4C134EEAD47E21EA4C1141F48011FC
:1010D00043F48013AE44A1FB024CA0FB0365AEF1C8
:1010E0007F7E361955EB0C05A1FB034C4CF1000338
:1010F000A0FB021C16EB0C06654153F100030942EC
:1011000018BF46F0010613F4007F0BD14FEA0331FC
:101110004FEA0530340341EA155140EA16506FF0AA
:1011200003020AE04FEAC3214FEAC520F40241EA74
:10113000555140EA56506FF0020202EB2E4201EB8D
:10114000025585EACE710AD05FEA440C18BF24F03C
:10115000004450F1000041F1000120EAD47040F257
:10116000FE7C624500D270BDA84214BF4FF080449F
:101170004FF04044002E08BF0024BEF1806FA8BF8E
:10118000A1F1C041BDE8704080F282804FF00000C4
:1011900001F1C04101F0004170479EEA0C0F0CEADA
:1011A000131518BF95EA0C0F06D04FF0000081EA26
:1011B000030E0EF0004170BD00F01CF88900013EE6
:1011C00000F007B800F009B84FEA430C5FEA5C5C36
:1011D00008D081EA030100F05BB84FEA410C5FEAF6
:1011E0005C5CF6D14FF00000014970470000FF073A
:1011F0000000F87F0EF1020E2EF0030E5EF8046B75
:10120000364205D4012A43EB030515F5001F12D819
:10121000012841EB010C1CF5001F0CD80ED14FEA40
:10122000D17C15F5001F0CEB4C0C0CF1020C08BF27
:101230004CEBD37C04E04FF0080C01E04FEAD37C88
:101240000CEB4C0526FA05F606F00706B6F1040C81
:1012500006D20EEB860CBDE870404CF0010C6047E6
:10126000DFE80CF0090B02024FF000414FF00000E4
:10127000A1F5002170BD19461046012851EB01046B
:1012800018BFD4F5001484BF002001F0004170BDE8
:101290000808A0F500114FEA3101704791EA030FE9
:1012A00010B581F000413FF5C3AC83F0004300F07E
:1012B00009B8000010B591EA030F48BF83F000435E
:1012C0003FF5B6AC841A71EB030C07D212198CF0FF
:1012D000004C43EB0C03001B61EB0C01DFF8A4E1B5
:1012E0004FEA1154A4EB135C1EEA430F18BF9EEAA9
:1012F000445F00F0B08023EA6E03524221EA0451B9
:10130000C3EB6E0338BF5B1EDCF1200E25D322FA3F
:101310000CFE10EB0E0043FA0CFE41EB0E01CCF17B
:10132000200E03FA0EFE10EB0E0051F10001CCF17D
:10133000200E29D412FA0EF201EB0451BDE8104040
:1013400058BF7047401C1CBFB2F1004F70470028C7
:101350000CBF491C20F00100704712EB020E43EB5A
:10136000030218BF4FF0010E4EEA4202ACF1200C0E
:10137000DCF11E0E54D943FA0CFE10EB0E0051F1B5
:10138000FF31CCF11E0ED5D50EF1010E12FA0EFE74
:10139000404141EB010101EB445C5FEA5C5C10D928
:1013A00010EBDE7001EB045138BFBEF1004FBDE819
:1013B000104018BF704700280CBF491C20F00100E6
:1013C000704730D24FEAD42C11F5001124F4006498
:1013D0001BD0B1FA81F20B3AA41AA41ED2F1200359
:1013E000914030FA03F31943904001EBCC71002C8B
:1013F00001EB0451BDE81040A8BF704701F1C041A6
:101400004FF0000001F000417047B0FA80F310FA8D
:1014100003F100D110BDE41A173C4805C90AE4E7FE
:1014200001EB045110BD491001EB0451BDE810401F
:101430004FEA300002E04FF0000170474A0008BF59
:101440000042F8D0B2F5001F28BF704701F00041FC
:101450004FF0000070479EEA445F07D011EA5E0F2C
:10146000BDE8104004BF002100207047BDE81040D7
:1014700070B5FFF7BFFE00BF40DFF63E83F00041CE
:10148000104670470000E0FFBBAA00FFFF05020105
:101490000101EEFF0000000000000000BBAA00FFF9
:1014A000FF0502020101EEFF000000000000000045
:1014B000BBAA00FFFF0502010101EEFF00000000D2
:1014C00000000000E41400080000002010000000EC
:1014D00028010008F4140008100000206008000033
:1014E00044010008000000000000000000000000AF
:0414F00000000000F8
:04000005080000ED02
:00000001FF
