:020000040800F2
:100000007007002089010008910100089301000891
:100010009501000897010008990100080000000000
:100020000000000000000000000000009B0100082C
:100030009D010008000000009F010008A1010008C8
:10004000A3010008A3010008A3010008A301000800
:10005000A3010008A30100083D020008B102000846
:10006000A3010008A3010008A3010008A3010008E0
:10007000A3010008A3010008A3010008A3010008D0
:10008000A3010008A3010008A3010008A3010008C0
:10009000A3010008A3010008A3010008A3010008B0
:1000A000A3010008A3010008A3010008A3010008A0
:1000B000A3010008A3010008A3010008A301000890
:1000C000A3010008A3010008A3010008A301000880
:1000D000A3010008B5040008A3010008A30100085B
:1000E00075020008A3010008A301000800F002F84F
:1000F00000F03AF80AA090E8000C82448344AAF188
:100100000107DA4501D100F02FF8AFF2090EBAE885
:100110000F0013F0010F18BFFB1A43F0010318473B
:100120004C0F00006C0F0000103A24BF78C878C153
:10013000FAD8520724BF30C830C144BF04680C60ED
:10014000704700000023002400250026103A28BF35
:1001500078C1FBD8520728BF30C148BF0B60704739
:100160001FB51FBD10B510BD00F031F81146FFF7E7
:10017000F7FF00F085FA00F04FF803B4FFF7F2FF45
:1001800003BC00F053F800000948804709480047C5
:10019000FEE7FEE7FEE7FEE7FEE7FEE7FEE7FEE737
:1001A000FEE7FEE704480549054A064B7047000094
:1001B00055040008ED0000087001002070070020C1
:1001C0007003002070030020704770477047754629
:1001D00000F028F8AE4605006946534620F00700B7
:1001E000854618B020B5FFF7DDFFBDE820404FF091
:1001F00000064FF000074FF000084FF0000B21F011
:100200000701AC46ACE8C009ACE8C009ACE8C009DD
:10021000ACE8C0098D4670470446AFF30080204625
:10022000FFF7ABFF004870470C0100200149182080
:10023000ABBEFEE7260002007047000010B50A20A2
:1002400000F07AF90748006800F0010048B9064854
:10025000006840F0010004490860072103A000F095
:1002600021FA10BD080C01401404014045585449BE
:10027000300D0A0010B50A2000F05EF907488068CA
:1002800000F4005048B10648006840F400500449AA
:100290000860082103A000F005FA10BD001001401D
:1002A000140401404558544931330D0A0000000040
:1002B00010B50A2000F040F90748006800F002007D
:1002C00048B90648006840F0020004490860072168
:1002D00003A000F0E7F910BD080C01401404014030
:1002E00045585449310D0A0070B5002100230F22F2
:1002F000C47804B3154C246804F4E064C4F5E064E5
:10030000210AC1F10403CA40447804FA03F1847855
:100310001440214309010E4C0678A155047804F0DD
:100320001F050124AC4005786D11AD0005F1E025F5
:10033000C5F8004109E0047804F01F050124AC4031
:10034000044D0678761145F8264070BD0CED00E0AE
:1003500000E400E080E100E002490143024A11604C
:10036000704700000000FA050CED00E010B500F049
:1003700001F810BD0CB500200190009033480068D2
:1003800040F480303149086000BF3048006800F414
:10039000003000900198401C0190009818B9019815
:1003A000B0F5A06FF1D12948006800F4003010B119
:1003B0000120009001E0002000900098012843D126
:1003C0002348006840F01000214908600846006892
:1003D00020F0030008600846006840F00200086052
:1003E0001A4840681949486008464068486008460D
:1003F000406840F4806048600846406820F47C1003
:1004000048600846406840F4E810486008460068C4
:1004100040F08070086000BF0C48006800F0007079
:100420000028F9D00948406820F0030007494860D7
:100430000846406840F00200486000BF034840683A
:1004400000F00C000828F9D10CBD0000001002409B
:100450000020024010B51348006840F00100114927
:10046000086008464068104908400E494860084640
:1004700000680E4908400B4908600846006820F4EF
:10048000802008600846406820F4FE0048604FF471
:100490001F008860FFF76AFF4FF0006004490860A2
:1004A00010BD0000001002400000FFF8FFFFF6FE44
:1004B00008ED00E00F48008800F02000C8B10D48AA
:1004C000001D00880C490D4A128888540B4800888A
:1004D000401C0A4908800888C11700EB1161091205
:1004E000A0EB0121054A118005480088401C044901
:1004F00008807047003801400C00002006000020F2
:100500000800002000214FF0E0221161C0F3CF016C
:10051000074A11801146098801EB4102C2EBC11163
:100520004FF6FF7202EAC101024A118070470000D3
:100530000000002002000020B0F5E16F01D94FF467
:10054000E160104A128850434FF0E022126922F015
:1005500001024FF0E0231A611A46506100229A61AD
:100560001A46126942F001021A6100BF4FF0E02200
:1005700011690129FAD0126922F001024FF0E0233B
:100580001A617047020000201248806940F005009F
:10059000104988611048406840F000700E4948607A
:1005A0000E4800680E4908400C490860084600687B
:1005B0000C4908430949086008480830006820F4DD
:1005C00000400649083108600846006840F4C850F9
:1005D000086070470010024000000140040801401C
:1005E000F00FF00F0330033008B52148806940F068
:1005F00010001F4988610846806940F00100886149
:100600001C48406820F470001A4948600846406859
:1006100040F4000048600846C06820F40050C860FC
:100620001548406940F020011348416113480068B3
:1006300040F4005011490860081D006820F4005083
:10064000091D08600D480838006840F400500B4947
:100650000839086028208DF8000001208DF801007D
:100660008DF802008DF803006846FFF73DFE08BDD7
:100670000010024000100140000001400804014049
:100680004FF4A060FFF768FE4820FFF73BFFFFF73D
:100690007BFF4FF46141482000F014F8FFF7A4FFFE
:1006A00000BFFEE7064A526C22F00102044B5A6476
:1006B0001A4610659164526C42F001025A64704708
:1006C000000002402DE9F34F85B08B464FEA0B1036
:1006D00000F0C5FA06460F46059800F0C0FA8046BD
:1006E0000022424B00F0CEFA32463B46CDE90001F3
:1006F00000F030F904460D462046294600F082FA03
:100700001FFA80FA504600F0AAFA064622462B4607
:1007100000F0B6FB0022364BCDE9000100F0B2FA42
:10072000804600F06FFA80B2029002986AF31F10C0
:100730001FFA80FA2F48806944F2040108432D49CA
:1007400088610846406940F0010048612A48006815
:1007500020F47F60284908600846006840F40B6078
:10076000086025480830006840F48060224908315C
:1007700008602248A0F800A0001D008840F00C008E
:100780001E49091D08800846008840F40050088072
:100790000846008840F02000088018480C30008887
:1007A00040F0800015490C3108801448001F14499E
:1007B000C86400200865886448640846406C41F2BB
:1007C000900108430E49486425208DF80C00032051
:1007D0008DF80D008DF80E0001208DF80F0003A894
:1007E000FFF782FD07B0BDE8F08F000080842E4146
:1007F0000000304000100240040801400838014069
:100800000000024010B591EA030F48BF83F0004397
:1008100000F14A83841A71EB030C05D2121943EBE1
:100820000C03001B61EB0C01DFF824E14FEA1154CB
:10083000A4EB135C1EEA430F18BF9EEA445F73D01B
:1008400023EA0E03DCF1200E21EA045143F4801365
:1008500032D322FA0CFE10EB0E0023FA0CFE41EB11
:100860000E01CCF1200E03FA0EFE10EB0E0051F13A
:100870000001B1F5801FCCF1200E32D201EB045102
:1008800012FA0EF2BDE8104058BF7047401C38BF46
:100890005FEA420218BF7047002814BF20F0010031
:1008A00041F100014FEA410313F5001F38BF7047C3
:1008B000A1F1C04100F0DEBA012A43EB0302ACF122
:1008C000200CDCF11F0E32BF4FF0000E23FA0CF3A8
:1008D00010EB030041EB0451B4EB115FD0D0A1EB5E
:1008E000045101F5801149085FEA300001EB045121
:1008F0000ED350F1000038BF12FA0EFE08D1BDE849
:100900001040C9E7401C38BF5FEA4202CAD1C3E7C2
:10091000BDE810404FEA410313F5001F38BF704790
:10092000A1F1C04100F0A6BA9EEA445F08D011EAE6
:100930005E0FBDE8104004BF01F000410020704789
:10094000BDE8104070B500F047FA00BF64FBBE3E42
:100950000000E0FF2DE9C04130B4DFF8A0C23CEA5E
:10096000111418BF3CEA131400F0EC8081EA03056F
:100970001CEA111444EAD57418BF1CEA131500F0E0
:10098000C780A4EB05044FF0004545EAC12145EAC4
:10099000C32341EA505143EA525304F17F74994210
:1009A00004F500344FEAC0204FEAC22208BF90424B
:1009B00000F09C804FEA13650FF24016765D4FEA17
:1009C000134506FB05F7C7F1807706FB07F74FEAEB
:1009D000D737A7FB03687642C8F58038A7FB06CE59
:1009E00038BFA8F1010807FB08E64FF0000EA6FB90
:1009F000028CE6FB03CEDCF1000CCEF1004E38BFDA
:100A0000AEF1010EA6FB0C584FF000074FF00005A9
:100A1000E6FB0E87A1FB08C6A0FB07CE16EB0E0671
:100A200045F10005E1FB076515F1E04E7EBFA4F539
:100A300080345FEA46066D4116F1800745F10005F6
:100A40004FEA17274FEA066647EA0567A6F1DE4632
:100A5000B6F1805F4FEA15251FD9384624F0010C06
:100A600005EBC471BCF1FE6F01EB0C1102D8F0BCB8
:100A7000BDE8008124425CBF01F5801E9EEAC47F70
:100A800002D4F0BCBDE80081244238D4F0BCA1F10E
:100A9000C041BDE8004100F0EDB94FEAD22242EA80
:100AA00043524FEAD323A7FB02864FEAD02040EA05
:100AB000415007FB03661EEA0E0F4FEAD12105FBEA
:100AC000026658BFA6EB0056B6EB00564FEA520E30
:100AD0004EEAC37E18EB0E0E56EB530EBDD518EB47
:100AE00002085E417F1C55F10005B6E74FF4801502
:100AF0004FF000074FF000064FF00008ADE7F0BCE4
:100B00004FF0000001F1C04101F00041BDE800815B
:100B100011EA0C1F0CEA131500D00CE013EA0C1FAD
:100B200000F025804FF00000F0BC81EA030101F0E5
:100B30000041BDE80081F0BCBDE8004181EA03014D
:100B400000F098B9F0BCBDE8004170B500F044F980
:100B5000097EFC3E00F007B881EA03014FF0000077
:100B600001F00041704781EA030100F083B9F0BC55
:100B7000BDE800414FF0000021497047FFFDFBF93F
:100B8000F7F5F4F2F0EEEDEBE9E8E6E4E3E1E0DEC0
:100B9000DDDBDAD8D7D5D4D3D1D0CFCDCCCBCAC832
:100BA000C7C6C5C4C2C1C0BFBEBDBCBBBAB9B8B759
:100BB000B6B5B4B3B2B1B0AFAEADACABAAA9A8A84C
:100BC000A7A6A5A4A3A3A2A1A09F9F9E9D9C9C9B1A
:100BD0009A999998979796959594939392919190C5
:100BE0008F8F8E8E8D8C8C8B8B8A89898888878756
:100BF0008685858484838382828181800000FF07CB
:100C00000000F87F4FEA1153A3F58063D3F11E0370
:100C1000A8BFD3F1200C08DB4FF0004242EAC1220A
:100C200052EA505232FA03F0704709420BD4102BAB
:100C3000C4BF0020704703F5787CBCF1FF3F05D0AE
:100C40004FF0FF3070474FF00000704770B500F074
:100C5000C3F800BF4992248000207047F0E7B0FA43
:100C600080F310FA03F10AD0C3F11D0303F580638A
:100C70004FEA41504FEA035202EBD12170474FF047
:100C800000007047DFF848C170B51CEA111E1EBF96
:100C90001CEA13159EEA0C0F95EA0C0F00F06F800A
:100CA00081EA030423EA4C134EEAD47E21EA4C1174
:100CB00041F4801143F48013AE44A1FB024CA0FB2D
:100CC0000365AEF17F7E361955EB0C05A1FB034C95
:100CD0004CF10003A0FB021C16EB0C06654153F11E
:100CE0000003094218BF46F0010613F4007F0BD140
:100CF0004FEA03314FEA0530340341EA155140EA27
:100D000016506FF003020AE04FEAC3214FEAC520F4
:100D1000F40241EA555140EA56506FF0020202EBEC
:100D20002E4201EB025585EACE710AD05FEA440CEF
:100D300018BF24F0004450F1000041F1000120EA06
:100D4000D47040F2FE7C624500D270BDA84214BF50
:100D50004FF080444FF04044002E08BF0024BEF105
:100D6000806FA8BFA1F1C041BDE8704080F28280D1
:100D70004FF0000001F1C04101F0004170479EEAD0
:100D80000C0F0CEA131518BF95EA0C0F06D04FF0A4
:100D9000000081EA030E0EF0004170BD00F01CF867
:100DA0008900013E00F007B800F009B84FEA430C93
:100DB0005FEA5C5C08D081EA030100F05BB84FEAAF
:100DC000410C5FEA5C5CF6D14FF0000001497047CE
:100DD0000000FF070000F87F0EF1020E2EF0030E58
:100DE0005EF8046B364205D4012A43EB030515F582
:100DF000001F12D8012841EB010C1CF5001F0CD874
:100E00000ED14FEAD17C15F5001F0CEB4C0C0CF108
:100E1000020C08BF4CEBD37C04E04FF0080C01E05F
:100E20004FEAD37C0CEB4C0526FA05F606F00706D4
:100E3000B6F1040C06D20EEB860CBDE870404CF007
:100E4000010C6047DFE80CF0090B02024FF0004193
:100E50004FF00000A1F5002170BD19461046012891
:100E600051EB010418BFD4F5001484BF002001F039
:100E7000004170BD0808A0F500114FEA310170472C
:100E800091EA030F10B581F000413FF5C3AC83F048
:100E9000004300F009B8000010B591EA030F48BF05
:100EA00083F000433FF5B6AC841A71EB030C07D214
:100EB00012198CF0004C43EB0C03001B61EB0C018E
:100EC000DFF8A4E14FEA1154A4EB135C1EEA430FD0
:100ED00018BF9EEA445F00F0B08023EA6E035242DE
:100EE00021EA0451C3EB6E0338BF5B1EDCF1200E18
:100EF00025D322FA0CFE10EB0E0043FA0CFE41EB58
:100F00000E01CCF1200E03FA0EFE10EB0E0051F193
:100F10000001CCF1200E29D412FA0EF201EB04519B
:100F2000BDE8104058BF7047401C1CBFB2F1004FD5
:100F3000704700280CBF491C20F00100704712EBDD
:100F4000020E43EB030218BF4FF0010E4EEA4202BD
:100F5000ACF1200CDCF11E0E54D943FA0CFE10EB60
:100F60000E0051F1FF31CCF11E0ED5D50EF1010E60
:100F700012FA0EFE404141EB010101EB445C5FEAD5
:100F80005C5C10D910EBDE7001EB045138BFBEF190
:100F9000004FBDE8104018BF704700280CBF491C27
:100FA00020F00100704730D24FEAD42C11F5001127
:100FB00024F400641BD0B1FA81F20B3AA41AA41EE7
:100FC000D2F12003914030FA03F31943904001EB32
:100FD000CC71002C01EB0451BDE81040A8BF704754
:100FE00001F1C0414FF0000001F000417047B0FA3C
:100FF00080F310FA03F100D110BDE41A173C480544
:10100000C90AE4E701EB045110BD491001EB04519A
:10101000BDE810404FEA300002E04FF00001704799
:101020004A0008BF0042F8D0B2F5001F28BF704741
:1010300001F000414FF0000070479EEA445F07D086
:1010400011EA5E0FBDE8104004BF00210020704788
:10105000BDE8104070B5FFF7BFFE00BF40DFF63EB1
:1010600083F00041104670470000E0FF8C1000083C
:10107000000000200C000000280100089810000863
:101080000C0000206407000044010008000000007C
:08109000000000000000000058
:04000005080000ED02
:00000001FF
