:020000040800F2
:100000002007002001010008090100080B01000879
:100010000D0100080F010008110100080000000098
:1000200000000000000000000000000013010008B4
:100030001501000800000000170100081901000860
:100040001B0100081B0100081B0100081B01000820
:100050001B0100081B0100081B0100081B01000810
:100060001B0100081B0100081B0100081B01000800
:100070001B0100081B0100081B0100081B010008F0
:100080001B0100081B0100081B0100081B010008E0
:100090001B0100081B0100081B0100081B010008D0
:1000A0001B0100081B0100081B0100081B010008C0
:1000B0001B0100081B0100081B0100081B010008B0
:1000C0001B0100081B0100081B0100081B010008A0
:1000D0001B0100088D0D0008DD0D0008310E000821
:1000E0001B0100081B0100081B010008DFF80CD0F1
:1000F00000F006FB0048004711110008200700200F
:100100000648804706480047FEE7FEE7FEE7FEE7B1
:10011000FEE7FEE7FEE7FEE7FEE7FEE72D0D00083F
:10012000ED00000880EA010210B502F00043400033
:1001300022D04A001FD0010E01EB1261C0F356001D
:10014000C2F3560240F4000042F40002A0FB022079
:1001500000047F39140400D0401C50EA124001D43E
:100160004000491EC2B20C0604EBD010401C4008EF
:10017000802A02D003E0002010BD20F001000029F9
:1001800000DA0020184310BD2DE9FE4F804681EAB9
:100190000300C00F0C46009021F0004123F0004501
:1001A000B8EB0200A94105D24046214690461C46C4
:1001B0000B46024623F00040104347D0270DC7F3FB
:1001C0000A00C3F30A510290401A019040286BDAEA
:1001D000C3F3130040F4801B0098924620B1002323
:1001E000D2EB030A63EB0B0B01985946C0F14002B6
:1001F000504600F0BFF906460D4650465946019A52
:1002000000F0D7F910EB08006141002487EA115291
:1002100084EAE7731A4340D0009A62B3019A012A34
:100220004FEA075215DC001B61EB02014FF0004260
:1002300002EA0752CDE90042001C41F58011324626
:100240002B4600F00EFA03B0BDE8F08F4046214681
:10025000F9E7001B61EB0201001C41F58013001857
:100260005B412018A2F5001747EB030140EAD57067
:10027000B6196D4111E06D084FEA360645EAC075C2
:100280004FEA0752001B61EB0201001C41F580118F
:1002900049084FEA30000019514132462B4603B05D
:1002A000BDE8F04F00F0CEB90098012240000023D5
:1002B000D0EB020263EBE073009821464FEAE07452
:1002C000B8EB000061EB0401E9E783F000435BE772
:1002D00081F0004158E72DE9FE4F81EA030404F064
:1002E000004421F0004100944FF0000B23F0004344
:1002F00050EA01045ED052EA03045BD0C3F30A540F
:10030000C1F30A552C44A4F2F3340194A0FB025427
:10031000C1F3130141F48011C3F3130343F48013B9
:1003200001FB024400FB034E840A970A44EA81540D
:1003300047EA8357A4FB076802958D0A05FB0785EA
:100340004FEA932C04FB0C542705029D4FEA0658F4
:1003500047EA1637B5EB08056EEB070C870E920ED1
:1003600047EA811742EA8312A7FB0201B6EB0B01B1
:1003700064EB00042B0D43EA0C335E1844EB1C5075
:10038000DA465146E7FB0201C5F313044FEA0B338B
:1003900043EA14534FEA0432019C43EA0603A4F1F2
:1003A0000C040294009CCDE900B400F05AF903B0AB
:1003B000BDE8F08F00200146F9E72DE9F04D81EA14
:1003C000030404F0004B21F0004514464FF0000AEE
:1003D00023F0004150EA050220D054EA01021DD06A
:1003E000C5F30A570246C5F31303C1F31300C1F363
:1003F0000A5640F4801543F48013A7EB0608101B3F
:10040000D64608F2FD3873EB050002D308F1010867
:1004100001E092185B41B8F1000F03DA00200146B9
:10042000BDE8F08D00204FF48011064684460EE0B2
:10043000171B73EB050705D3121B63EB050306437C
:100440004CEA010C49084FEA300092185B4150EA2F
:100450000107EDD152EA030012D082EA040083EAD8
:100460000501084305D0101BAB4106D20122002331
:1004700006E000224FF0004302E06FF0010253104B
:100480001AEB06004CEB085110EB0A0041EB0B0194
:10049000BDE8F04D00F0D6B896230022114600F0DA
:1004A000A3B80EB540F2334102910021CDE900110D
:1004B0000A460B4600F0D5F803B000BD20F000401E
:1004C000C10DC0F3160040F400007F2901DA0020BE
:1004D0007047962903DCC1F19601C84070479639F0
:1004E00088407047C1F30A5210B5C1F3130140F2BE
:1004F000FF3341F480119A4201DA002010BD40F22E
:1005000033439A42A2F2334203DC524200F041F8F4
:1005100010BD904010BD00F0004230F000400AD005
:10052000C10D01F56071C0F3160042EA0151C20825
:1005300040071143704700200146704701F0004317
:1005400030B421F0004150EA010206D00A0DA2F5B4
:100550006072C1F31301002A02DC30BC0020704736
:10056000440F44EAC104C100E01830BC00EBC250A3
:1005700000F031B8202A04DB203A00FA02F1002012
:1005800070479140C2F1200320FA03F319439040D1
:100590007047202A04DB203A21FA02F0002170473C
:1005A00021FA02F3D040C2F12002914008431946DB
:1005B0007047202A06DBCB17203A41FA02F043EAC3
:1005C000E07306E041FA02F3D040C2F1200291400C
:1005D0000843194670470029A8BF7047401C4900CE
:1005E00008BF20F00100704710B4B0FA80FC00FA98
:1005F0000CF050EA010404BF10BC704749B1CCF1C3
:10060000200421FA04F411FA0CF118BF012121434E
:100610000843A3EB0C01CB1D4FEA00614FEA102009
:1006200042BF002010BC704700EBC35010440029AB
:10063000A4BF10BC7047401C490008BF20F0010057
:1006400010BC704710B5141E73F1000408DA401C8A
:1006500041F1000192185B411A4301D120F00100E1
:1006600010BD2DE9F04D92469B4611B1B1FA81F2D1
:1006700002E0B0FA80F220329046FFF77BFF04469A
:100680000F4640EA0A0041EA0B0153465A46084326
:1006900013D0114653EA010019D0C8F14002504668
:1006A000FFF777FF05460E46504659464246FFF78C
:1006B00061FF084305D0012004E020463946BDE82B
:1006C000F08D0020054346EAE0762C4337430A9834
:1006D0006305E40AA0EB08000022FD0A44EA47543F
:1006E0000A3002D500200146E9E7010510196941E9
:1006F000DDE9084500196941BDE8F04DA2E70000B9
:10070000064C074D06E0E06840F0010394E807005E
:1007100098471034AC42F6D3FFF7ECFCA41600085F
:10072000C416000810B51648006820F010001449DF
:10073000086013480C38006820F4704010490C39E8
:1007400008600846006840F4405008600C480068A3
:1007500020F008000A490860022000F013FC084855
:10076000006840F0100006490860022000F00AFC12
:100770000348006820F010000149086010BD000027
:100780000C0C01400F48806940F008000D49886159
:100790000D48006820F47F200B4908600846006877
:1007A00040F44C30086008480C30006840F01000FD
:1007B00005490C3108600846006840F008000860F0
:1007C0007047000000100240000C014010B51648B0
:1007D000006820F010001449086013480C380068C5
:1007E00020F4704010490C3908600846006840F455
:1007F000405008600C48006840F008000A49086052
:10080000022000F0BFFB0848006840F010000649D5
:100810000860022000F0B6FB0348006820F01000DA
:100820000149086010BD00000C0C014070B5054680
:1008300000241C48006820F470401A4908600846EB
:10084000006840F400400860002620E015480C30A5
:10085000006820F0100013490C310860022000F0FD
:1008600091FB10480C30006840F010000D490C312D
:1008700008606006040E081F0068C0F3C00008B1DD
:10088000601CC4B2012000F07DFB701CC6B2082EB3
:10089000DCDB15B9FFF79AFF01E0FFF743FF2046C5
:1008A00070BD0000000C014070B50446234800688C
:1008B00020F47040214908600846006840F4405028
:1008C00008601E480C30006820F010001B490C31F5
:1008D000086000252FE0E00940B118480C3000689E
:1008E00040F0080015490C31086007E013480C304F
:1008F000006820F0080011490C3108606006040E01
:10090000022000F03FFB0D480C30006840F0100062
:100910000A490C310860022000F034FB07480C3013
:10092000006820F0100005490C310860022000F03A
:1009300029FB681CC5B2082DCDDB70BD000C014041
:1009400010B51748006820F4704015490860084643
:10095000006840F44050086011480C30006840F0D6
:1009600008000F490C3108600846006840F010008C
:100970000860042000F006FB09480C30006820F0F5
:10098000080007490C310860042000F0FBFA044815
:100990000C30006820F0100001490C31086010BDD7
:1009A000000C014010B51948006820F47040174948
:1009B00008600846006840F44050086013480C3056
:1009C000006820F0100011490C31086008460068EA
:1009D00020F008000860042000F0D4FA0B480C3026
:1009E000006840F0100009490C310860012000F057
:1009F000C9FA06480C30006840F0080003490C3181
:100A00000860042000F0BEFA10BD0000000C014098
:100A100010B500241C48006820F470401A49086092
:100A20000846006840F40040086017480C30006831
:100A300040F0080014490C310860012000F0A2FACF
:100A400011480C30006840F010000F490C3108606C
:100A5000012000F097FA05E0601CC4B2FA2C01DD19
:100A6000012010BD084808300068C0F3C00000280D
:100A7000F2D105480C30006820F0100002490C311A
:100A800008600020EDE70000000C014070B5002177
:100A900000230F22C47804B3154C246804F4E064E6
:100AA000C4F5E064210AC1F10403CA40447804FAA1
:100AB00003F184781440214309010E4C0678A155B6
:100AC000047804F01F050124AC4005786D11AD00D9
:100AD00005F1E025C5F8004109E0047804F01F05A0
:100AE0000124AC40044D0678761145F8264070BDCF
:100AF0000CED00E000E400E080E100E02DE9FE4FB5
:100B00000446894600200290824602AB0222F3216D
:100B1000802000F0D3F8E8B99DF809009DF808108E
:100B200040EA012A2AF0030A5046FFF7B5FC834643
:100B3000FFF7F1FC0746204A204BFFF7CCFB0546A8
:100B40001F4A204BFFF7C1FBCDE90001FFF7F6FC80
:100B5000206004E0002020600120BDE8FE8F02AB91
:100B60000222F521802000F0A9F8F0B99DF80900D3
:100B70009DF8081040EA012A2AF0030A5046FFF7C0
:100B80008BFC8346FFF7C7FC0F4A104BCDE90001F1
:100B9000FFF7A1FB054600220D4BFFF796FB07462A
:100BA000FFF7CCFCC9F8000004E00020C9F8000001
:100BB0000120D2E70020D0E7619FC6DE07F7653F3E
:100BC000CDCCCCCCCC6C47407644CF7701405F3F56
:100BD0000000184010B500F001F810BD0CB5002061
:100BE000019000903348006840F48030314908603B
:100BF00000BF3048006800F4003000900198401CAD
:100C00000190009818B90198B0F5A06FF1D129486A
:100C1000006800F4003010B10120009001E00020D5
:100C200000900098012843D12348006840F010004C
:100C3000214908600846006820F003000860084663
:100C4000006840F0020008601A484068194948608E
:100C50000846406848600846406840F48060486044
:100C60000846406820F47C1048600846406840F41C
:100C7000E81048600846006840F08070086000BFD7
:100C80000C48006800F000700028F9D0094840685E
:100C900020F00300074948600846406840F0020021
:100CA000486000BF0348406800F00C000828F9D1F4
:100CB0000CBD000000100240002002402DE9F04170
:100CC00006460F4614461D46FFF73AFE3046FFF72C
:100CD000EBFDFFF79DFE20B1FFF764FE0120BDE8AC
:100CE000F0813846FFF7E0FDFFF792FE642000F048
:100CF000F3F8FFF725FE711CC8B2FFF7D5FDFFF72B
:100D000087FE0DE0012C04D10020FFF78FFD287035
:100D100003E00120FFF78AFD2870601EC4B26D1C3D
:100D2000002CEFD1FFF73EFE0020D8E710B51348A6
:100D3000006840F001001149086008464068104909
:100D400008400E494860084600680E4908400B49B3
:100D500008600846006820F4802008600846406863
:100D600020F4FE0048604FF41F008860FFF732FF58
:100D70004FF000600449086010BD00000010024000
:100D80000000FFF8FFFFF6FE08ED00E00F480088C6
:100D900000F02000C8B10D48001D00880C490D4A24
:100DA000128888540B480088401C0A49088008882B
:100DB000C11700EB11610912A0EB0121054A118056
:100DC00005480088401C04490880704700380140ED
:100DD0001C000020060000200800002010480088A9
:100DE00000F02000D0B10E48001D00880D490E4AC9
:100DF000128888540C480088401C0B4908800B4816
:100E00000088401C0949088007490888C11700EB81
:100E100011610912A0EB0121034A11807047000003
:100E2000004400401C01002010000020120000209F
:100E300000211048008800F02000D0B10D48001DAE
:100E40000088C1B20C480D4A128881540B480088B2
:100E5000401C0A4A10801088C21700EB126212125E
:100E6000A0EB0222054B1A8005480088401C044A6A
:100E700010807047004800401C020020160000202F
:100E80001800002002E008C8121F08C1002AFAD189
:100E900070477047002001E001C1121F002AFBD1FA
:100EA0007047000000214FF0E0221161C0F3CF0134
:100EB000074A11801146098801EB4102C2EBC111BA
:100EC0004FF6FF7202EAC101024A1180704700002A
:100ED0000A0000200C00002008B500210091B0F5A8
:100EE000E16F01D94FF4E1601549098848434FF09B
:100EF000E021096921F001014FF0E0221161114662
:100F00004861002191611146096941F001011161B7
:100F100000BF4FF0E02109690091009901F4803190
:100F200021B9009901F001010029F2D14FF0E0212F
:100F3000096921F001014FF0E022116108BD0000B4
:100F40000C0000202DE9F04105460E4600220C4B16
:100F500028463146FFF7BFF90746FFF7C3FA0446B4
:100F600005E04FF4E160FFF7B7FFA4F5E164B4F5E5
:100F7000E16FF6D82046FFF7AFFFBDE8F081000033
:100F800000408F4008B50021009115490988484369
:100F90004FF0E021096921F001014FF0E0221161D9
:100FA00011464861002191611146096941F0010132
:100FB000116100BF4FF0E02109690091009901F42F
:100FC000803121B9009901F001010029F2D14FF0DF
:100FD000E021096921F001014FF0E022116108BD13
:100FE0000A000020072800DD704708285BD2DFE8F0
:100FF00000F0040B17232F3B47532C49096841F499
:10100000C8512A4A11604EE02849096841F4C0518C
:10101000264A11601146096821F48071116042E08E
:101020002249096841F48851204A11601146096833
:1010300021F40061116036E01C49096841F4106137
:101040001A4A11601146096821F4805111602AE0A2
:101050001649096841F48051144A11601146096823
:1010600021F4106111601EE01049096841F400612B
:101070000E4A11601146096821F48851116012E08E
:101080000A49096841F48071084A116011460968EB
:1010900021F4C051116006E00449096821F4C851E7
:1010A000024A116000BF00BF00BF9DE70C0801406D
:1010B0001248806940F00500104988611048406876
:1010C00040F000700E4948600E4800680E49084024
:1010D0000C490860084600680C4908430949086043
:1010E00008480830006820F40040064908310860CC
:1010F0000846006840F4C85008607047001002407D
:101100000000014004080140F00FF00F03300330ED
:1011100088B0FFF7CDFF4FF46141482000F0C6F8DA
:101120004FF46141242000F00DFA4820FFF7BAFE89
:10113000FFF728FB4FF41651242000F085F9022018
:10114000FFF750FF48E000F04FF800EB800044004C
:10115000C4F3072704F0FF088DF810708DF8118094
:1011600004AB02220121084600F050F80320FFF7EB
:1011700039FF40F2DC50FFF7AFFE06A907A8FFF7E2
:10118000BDFC16490798FEF7CDFF8146FFF796F99B
:1011900085B213490698FEF7C5FF8146FFF78EF921
:1011A00086B22F0A05F0FF088DF804708DF80580CF
:1011B000370A06F0FF088DF806708DF8078001AB3E
:1011C00004220221012000F021F80220FFF70AFF8B
:1011D00000200449FFF7B6FEB5E7000000007A449E
:1011E0000000C8420000144030B5CBB0002568466E
:1011F00000F0FCF804462CB19DF802009DF80310A5
:1012000040EA012528464BB030BD00002DE9F043EF
:101210008DB00746884615461E464FF0040988EAF9
:101220000700684080EA0909AA208DF80000BB2069
:101230008DF8010000208DF802001A4800788DF822
:101240000300194800788DF804008DF8057004201B
:101250008DF806008DF807808DF8085000240AE00C
:10126000317804F109000DF80010307880EA09099E
:10127000761C601CC4B2AC42F2DB04F109000DF82C
:101280000090EE21401C0DF80010FF21401C0DF8CD
:101290000010411C684600F0EFF900200DB0BDE8D9
:1012A000F083000001000020020000202DE9F34F30
:1012B00085B08B464FEA0B10FFF7F3F806460F4652
:1012C0000598FFF7EEF880460022424BFFF703F83F
:1012D00032463B46CDE90001FFF76FF804460D4664
:1012E00020462946FFF7FEF81FFA80FA5046FFF71E
:1012F000D8F8064622462B46FEF7EAFF0022364B78
:10130000CDE90001FEF7E7FF8046FFF7EBF880B27A
:10131000029002986AF31F101FFA80FA2F48806922
:1013200044F2040108432D4988610846406940F0B1
:10133000010048612A48006820F47F60284908605D
:101340000846006840F40B600860254808300068D3
:1013500040F480602249083108602248A0F800A0CB
:10136000001D008840F00C001E49091D0880084639
:10137000008840F4005008800846008840F02000B3
:10138000088018480C30008840F0800015490C3166
:1013900008801448001F1449C86400200865886448
:1013A00048640846406C41F2900108430E49486485
:1013B00025208DF80C0003208DF80D008DF80E000F
:1013C00001208DF80F0003A8FFF760FB07B0BDE810
:1013D000F08F000080842E41000030400010024059
:1013E00004080140083801400000024030B50146C1
:1013F00012480388008808B9002030BD00200F4C37
:101400002080002215E00E480E4C2488005D0870F4
:10141000491C0C480088401C0A4C20802088C417B6
:1014200000EB14642412A0EB0424064D2C80501C05
:1014300082B29A42E7DB1846DFE70000180000207E
:101440001C020020140000202DE9F34F85B08B46CC
:101450004FEA0B10FFF725F806460F460598FFF7F1
:1014600020F880460022324BFEF735FF32463B46DD
:10147000CDE90001FEF7A1FF04460D4620462946AE
:10148000FFF730F81FFA80FA5046FFF70AF80646D1
:1014900022462B46FEF71CFF0022264BCDE9000119
:1014A000FEF719FF8046FFF71DF880B20290029800
:1014B0006AF31F101FFA80FA1F48806940F0080085
:1014C0001D4988610846C06940F48020C8611B48F6
:1014D000006820F47F40194908600846006840F41D
:1014E0000B40086015480830006840F4006013495C
:1014F000083108601248A0F800A0001D008842F2E0
:101500002C0108430E49091D088027208DF80C0086
:1015100002208DF80D0003208DF80E0001208DF8BB
:101520000F0003A8FFF7B2FA07B0BDE8F08F000084
:1015300080842E410000304000100240040C014025
:10154000084800402DE9F04F85B081468A4644485E
:1015500009FB00F04FEA0A11B0FBF1F73846FEF73D
:10156000A0FF05460E4628463146FEF7BBFF84B273
:101570002046FEF796FF2A463346CDE90001FEF7E6
:10158000A7FE0022374BCDE90201FEF7A4FE074675
:10159000FEF7A8FF8346584664F31F1084B2324812
:1015A000806940F00400304988610846C06940F411
:1015B0000030C8610846406940F0010048612B488E
:1015C000006820F47F40294908600846006840F41C
:1015D0000B40086025480C30006840F008002349A3
:1015E0000C31086022480480001D008842F22C0162
:1015F00008431F49091D08801D480C30008840F031
:1016000080001B490C31088000201A4908601848E6
:10161000001F18498039C1F88800002015490C3195
:10162000086014498039C1F884001248006842F209
:10163000900108430F498039C1F8800026208DF8B9
:10164000100002208DF8110003208DF812000120F7
:101650008DF8130004A8FFF719FA05B0BDE8F08F64
:1016600040420F00000030400010024000080140DE
:101670000844004080000240094A126822F001023A
:10168000074B803BC3F880201A46C2F88C00C2F892
:101690008410D2F8802042F00102C3F88020704705
:1016A00080000240C4160008000000201C0000005A
:1016B000840E0008E01600081C000020040700004B
:1016C000940E000800FFFF00000000000000000072
:1016D000000000000000000000000000000000000A
:04000005080000ED02
:00000001FF
