:020000040800F2
:100000001806002001010008090100080B01000882
:100010000D0100080F010008110100080000000098
:1000200000000000000000000000000013010008B4
:100030001501000800000000170100081901000860
:100040001B0100081B0100081B0100081B01000820
:100050001B0100081B010008090600084D060008E6
:100060001B0100081B0100081B0100081B01000800
:100070001B0100081B0100081B0100081B010008F0
:100080001B0100081B0100081B0100081B010008E0
:100090001B0100081B0100081B0100089106000855
:1000A0001B0100081B0100081B0100081B010008C0
:1000B0001B0100081B0100081B0100081B010008B0
:1000C0001B0100081B0100081B0100081B010008A0
:1000D0001B010008A1080008F10800081B01000826
:1000E0001B0100081B0100081B010008DFF80CD0F1
:1000F00000F078FA00480047890C00081806002034
:100100000648804706480047FEE7FEE7FEE7FEE7B1
:10011000FEE7FEE7FEE7FEE7FEE7FEE74108000830
:10012000ED00000840EA01039B0703D009E008C97D
:10013000121F08C0042AFAD203E011F8013B00F8AC
:10014000013B521EF9D27047D2B201E000F8012BF8
:10015000491EFBD270470022F6E710B513460A4647
:1001600004461946FFF7F0FF204610BD2DE9FE4F6B
:10017000804681EA0300C00F0C46009021F0004148
:1001800023F00045B8EB0200A94105D240462146C4
:1001900090461C460B46024623F00040104347D0D1
:1001A000270DC7F30A00C3F30A510290401A0190C9
:1001B00040286BDAC3F3130040F4801B009892468A
:1001C00020B10023D2EB030A63EB0B0B01985946D5
:1001D000C0F14002504600F077F906460D46504601
:1001E0005946019A00F08FF910EB08006141002494
:1001F00087EA115284EAE7731A4340D0009A62B347
:10020000019A012A4FEA075215DC001B61EB02013B
:100210004FF0004202EA0752CDE90042001C41F5CE
:10022000801132462B4600F08FF903B0BDE8F08F05
:1002300040462146F9E7001B61EB0201001C41F535
:10024000801300185B412018A2F5001747EB03014B
:1002500040EAD570B6196D4111E06D084FEA3606D7
:1002600045EAC0754FEA0752001B61EB0201001C12
:1002700041F5801149084FEA3000001951413246DA
:100280002B4603B0BDE8F04F00F04FB900980122B3
:1002900040000023D0EB020263EBE073009821469C
:1002A0004FEAE074B8EB000061EB0401E9E783F08A
:1002B00000435BE781F0004158E72DE9FE4F81EAFA
:1002C000030404F0004421F0004100944FF0000BBF
:1002D00023F0004350EA01045ED052EA03045BD0ED
:1002E000C3F30A54C1F30A552C44A4F2F334019425
:1002F000A0FB0254C1F3130141F48011C3F31303B3
:1003000043F4801301FB024400FB034E840A970A66
:1003100044EA815447EA8357A4FB076802958D0A93
:1003200005FB07854FEA932C04FB0C542705029D1F
:100330004FEA065847EA1637B5EB08056EEB070C8F
:10034000870E920E47EA811742EA8312A7FB020149
:10035000B6EB0B0164EB00042B0D43EA0C335E1883
:1003600044EB1C50DA465146E7FB0201C5F3130487
:100370004FEA0B3343EA14534FEA0432019C43EA39
:100380000603A4F10C040294009CCDE900B400F033
:10039000DBF803B0BDE8F08F00200146F9E72DE956
:1003A000F04D81EA030404F0004B21F000451446AF
:1003B0004FF0000A23F0004150EA050220D054EA31
:1003C00001021DD0C5F30A570246C5F31303C1F35A
:1003D0001300C1F30A5640F4801543F48013A7EBD1
:1003E0000608101BD64608F2FD3873EB050002D351
:1003F00008F1010801E092185B41B8F1000F03DA3F
:1004000000200146BDE8F08D00204FF48011064623
:1004100084460EE0171B73EB050705D3121B63EB35
:10042000050306434CEA010C49084FEA30009218D4
:100430005B4150EA0107EDD152EA030012D082EA93
:10044000040083EA0501084305D0101BAB4106D226
:100450000122002306E000224FF0004302E06FF08B
:10046000010253101AEB06004CEB085110EB0A0086
:1004700041EB0B01BDE8F04D00F057B80EB540F26E
:10048000334102910021CDE900110A460B4600F0EC
:100490005BF803B000BDC1F30A5210B5C1F31301FC
:1004A00040F2FF3341F480119A4201DA002010BD7E
:1004B00040F233439A42A2F2334203DC524200F04C
:1004C00012F810BD904010BD202A04DB203A00FA3B
:1004D00002F1002070479140C2F1200320FA03F39B
:1004E000194390407047202A04DB203A21FA02F099
:1004F0000021704721FA02F3D040C2F1200291405E
:10050000084319467047202A06DBCB17203A41FAE8
:1005100002F043EAE07306E041FA02F3D040C2F190
:100520002002914008431946704710B5141E73F11C
:10053000000408DA401C41F1000192185B411A43A3
:1005400001D120F0010010BD2DE9F04D92469B46EF
:1005500011B1B1FA81F202E0B0FA80F22032904695
:10056000FFF7B2FF04460F4640EA0A0041EA0B01DA
:1005700053465A46084313D0114653EA010019D096
:10058000C8F140025046FFF7AEFF05460E46504602
:1005900059464246FFF798FF084305D0012004E082
:1005A00020463946BDE8F08D0020054346EAE07656
:1005B0002C4337430A986305E40AA0EB08000022A5
:1005C000FD0A44EA47540A3002D500200146E9E713
:1005D000010510196941DDE9084500196941BDE8C7
:1005E000F04DA2E7064C074D06E0E06840F001033D
:1005F00094E8070098471034AC42F6D3FFF77AFD31
:10060000FC1200081C13000810B5642000F0C4F9A7
:100610000B48006800F0010050B90A48007800F06B
:10062000400028B90748007840F0400005490870AC
:100630000548006840F001000349086010BD000053
:10064000080C0140030000201404014010B5642090
:1006500000F0A2F90B48006800F0020050B90A4807
:10066000007800F0040028B90748007840F0040042
:10067000054908700548006840F002000349086019
:1006800010BD0000080C01400300002014040140CC
:1006900010B5642000F080F90B48006800F04000BD
:1006A00050B90A48007800F0010028B907480078DE
:1006B00040F00100054908700548006840F040001E
:1006C0000349086010BD0000080C01400300002031
:1006D0001404014070B5002100230F22C47804B334
:1006E000154C246804F4E064C4F5E064210AC1F107
:1006F0000403CA40447804FA03F184781440214387
:1007000009010E4C0678A155047804F01F05012458
:10071000AC4005786D11AD0005F1E025C5F800414C
:1007200009E0047804F01F050124AC40044D06786C
:10073000761145F8264070BD0CED00E000E400E0C5
:1007400080E100E002490143024A11607047000065
:100750000000FA050CED00E010B500F001F810BD46
:100760000CB50020019000903348006840F48030C0
:100770003149086000BF3048006800F40030009044
:100780000198401C0190009818B90198B0F5A06F2D
:10079000F1D12948006800F4003010B10120009028
:1007A00001E0002000900098012843D12348006810
:1007B00040F01000214908600846006820F003005E
:1007C00008600846006840F0020008601A48406867
:1007D000194948600846406848600846406840F447
:1007E000806048600846406820F47C1048600846F5
:1007F000406840F4E81048600846006840F08070A7
:10080000086000BF0C48006800F000700028F9D0B4
:100810000948406820F003000749486008464068DE
:1008200040F00200486000BF0348406800F00C0040
:100830000828F9D10CBD0000001002400020024041
:1008400010B51348006840F00100114908600846DF
:100850004068104908400E494860084600680E4943
:1008600008400B4908600846006820F480200860B2
:100870000846406820F4FE0048604FF41F0088607E
:10088000FFF76AFF4FF000600449086010BD0000E8
:10089000001002400000FFF8FFFFF6FE08ED00E048
:1008A0000F48008800F02000C8B10D48001D0088E6
:1008B0000C490D4A128888540B480088401C0A498C
:1008C00008800888C11700EB11610912A0EB012113
:1008D000054A118005480088401C0449088070477B
:1008E00000380140140100201000002012000020F8
:1008F0001048008800F02000D0B10E48001D00888C
:100900000D490E4A128888540C480088401C0B4937
:1009100008800B480088401C09490880074908885E
:10092000C11700EB11610912A0EB0121034A1180EC
:100930007047000000440040140000200600002022
:100940000800002002E008C8121F08C1002AFAD1DE
:1009500070477047002001E001C1121F002AFBD13F
:100960007047000000214FF0E0221161C0F3CF0179
:10097000074A11801146098801EB4102C2EBC111FF
:100980004FF6FF7202EAC101024A1180704700006F
:100990000A0000200C00002008B500210091B0F5ED
:1009A000E16F01D94FF4E1601549098848434FF0E0
:1009B000E021096921F001014FF0E02211611146A7
:1009C0004861002191611146096941F001011161FD
:1009D00000BF4FF0E02109690091009901F48031D6
:1009E00021B9009901F001010029F2D14FF0E02175
:1009F000096921F001014FF0E022116108BD0000FA
:100A00000C00002030B10749096841F40041054A53
:100A1000116005E00349096821F40041014A1160B1
:100A2000704700000C080140072800DD70470828C7
:100A30005BD2DFE800F0040B17232F3B47532C4910
:100A4000096841F4C8512A4A11604EE028490968F2
:100A500041F4C051264A11601146096821F48071A1
:100A6000116042E02249096841F48851204A11602E
:100A70001146096821F40061116036E01C490968DB
:100A800041F410611A4A11601146096821F480513D
:100A900011602AE01649096841F48051144A116036
:100AA0001146096821F4106111601EE010490968BF
:100AB00041F400610E4A11601146096821F4885121
:100AC000116012E00A49096841F48071084A116016
:100AD0001146096821F4C051116006E00449096813
:100AE00021F4C851024A116000BF00BF00BF9DE75A
:100AF0000C0801401248806940F0050010498861E7
:100B00001048406840F000700E4948600E48006888
:100B10000E4908400C490860084600680C49084323
:100B20000949086008480830006820F40040064978
:100B3000083108600846006840F4C85008607047F3
:100B4000001002400000014004080140F00FF00FC7
:100B50000330033030B501460B780A46C878001DD3
:100B6000C5B2521C012404E010784340521C601CA2
:100B7000C4B2AC42F8DB91F82200984201D10020C7
:100B800030BD0120FCE7000008B53948806940F01D
:100B90000800374988610846806940F00100886193
:100BA0003448006834490840324908600846006803
:100BB000324908432F4908602E480C30006840F045
:100BC00043002C490C3108600846006820F0800082
:100BD00008602B48806840F0110029498860084669
:100BE000C06840F488512648C1602648006820F05B
:100BF000C30024490860081D006840F0C300091DB7
:100C0000086020480838006840F0C3001D490839D2
:100C1000086006208DF8000001208DF801000220F8
:100C20008DF8020001208DF803006846FFF752FDA1
:100C300007208DF8000001208DF8010002208DF8BA
:100C4000020001208DF803006846FFF743FD1720DE
:100C50008DF8000001208DF8010002208DF80200BF
:100C600001208DF803006846FFF734FD08BD000041
:100C700000100240000C014000FFFF0088000088C7
:100C800000000140080401408EB05CA000680490A0
:100C90005AA00068039059A00068029057A000680D
:100CA000019000240020564908704FF4C060FFF7FF
:100CB00049FD4FF46141242000F070FA4820FFF70D
:100CC00051FEFFF717FF4FF46141482000F052F941
:100CD000FFF75AFF0220FFF7A7FE8EE04848007892
:100CE000002873D04648007800F0010098B14448CD
:100CF000007800F0020070B904AB012211461046E2
:100D000000F0CCF83E48007840F002003C49087002
:100D10000120FFF789FE3A48007800F0040098B1FE
:100D20003748007800F0080070B902AB01220221B8
:100D3000104600F0B3F83248007840F0080030491F
:100D400008700120FFF770FE2D48007800F01000B9
:100D500098B12B48007800F0200070B901AB012257
:100D60000321104600F09AF82548007840F0200052
:100D7000234908700120FFF757FE2148007800F052
:100D8000400098B11E48007800F0800070B903ABB5
:100D900001220421104600F081F81948007840F043
:100DA0008000174908700120FFF73EFE3CB9022081
:100DB000FFF73AFE0120FFF725FE012406E00020A0
:100DC000FFF732FE0020FFF71DFE00246420FFF72E
:100DD000E3FD05A800F016F878B99DF81400022884
:100DE0000BD10020064908700220FFF71DFE0020ED
:100DF000FFF71AFE0020FFF705FE6FE70100000075
:100E00000300002030B58DB005460121684600F092
:100E100051F9C4B214B901200DB030BD2146684665
:100E200000F08CF89DF80000BB2803D19DF801006C
:100E3000AA2801D00220EFE79DF80600032804D07D
:100E40009DF8060008B10320E6E724212846FFF7B5
:100E500082F9E21E0DF105012846FFF763F9E01E55
:100E60001DF8000085F82200A01E1DF8000085F87E
:100E700023002846FFF76EFE08B10420CCE728784F
:100E8000032806D1044B0122002100F007F80520B9
:100E9000C2E70020C0E70000000000202DE9F04379
:100EA0008DB00746884615461E464FF0030988EA6E
:100EB0000700684080EA0909AA208DF80000BB20DD
:100EC0008DF8010000208DF802001A4800788DF896
:100ED0000300194800788DF804008DF80570032090
:100EE0008DF806008DF807808DF8085000240AE080
:100EF000317804F109000DF80010307880EA090912
:100F0000761C601CC4B2AC42F2DB04F109000DF89F
:100F10000090EE21401C0DF80010FF21401C0DF840
:100F20000010411C684600F0D3F900200DB0BDE868
:100F3000F0830000010000200200002010B50246EE
:100F40000B46002405E0107800F006F8521C601CE7
:100F500084B29C42F7DB10BD00BF0549098801F04F
:100F600080010029F9D00249091D0880704700005E
:100F7000003801402DE9F34F85B08B464FEA0B1046
:100F8000FFF77CFA06460F460598FFF777FA80468A
:100F90000022424BFFF791F932463B46CDE9000172
:100FA000FFF7FDF904460D4620462946FFF773FA80
:100FB0001FFA80FA5046FFF761FA064622462B4692
:100FC000FFF778F90022364BCDE90001FFF775F9FC
:100FD0008046FFF760FA80B2029002986AF31F1011
:100FE0001FFA80FA2F48806944F2040108432D4912
:100FF00088610846406940F0010048612A4800685D
:1010000020F47F60284908600846006840F40B60BF
:10101000086025480830006840F4806022490831A3
:1010200008602248A0F800A0001D008840F00C00D5
:101030001E49091D08800846008840F400500880B9
:101040000846008840F02000088018480C300088CE
:1010500040F0800015490C3108801448001F1449E5
:10106000C86400200865886448640846406C41F202
:10107000900108430E49486425208DF80C00032098
:101080008DF80D008DF80E0001208DF80F0003A8DB
:10109000FFF720FB07B0BDE8F08F000080842E41F1
:1010A00000003040001002400408014008380140B0
:1010B00000000240F0B502460C4634480388008820
:1010C00008B90020F0BDF4B90020304E3080002176
:1010D00015E02F482F4E3688805D1070521C2D4829
:1010E0000088401C2B4E30803088C61700EB1666F7
:1010F0003612A0EB0626274F3E80481C81B299424B
:10110000E7DB1846DEE72348018800BF0846CE1714
:1011100001EB16663612A1EB0626B1B21C48405C04
:10112000EE2806D11A4E481C305CFF2801D101255B
:1011300007E019480088814200D102E0481C81B2D2
:10114000E4E700BF0DB90020BCE710480388002089
:101150000E4E3080002115E00D480E4E3688805D21
:101160001070521C0B480088401C0A4E308030889A
:10117000C61700EB16663612A0EB0626054F3E801A
:10118000481C81B29942E7DB18469BE70800002023
:101190001400002004000020060000202DE9F04F7C
:1011A00085B081468A46444809FB00F04FEA0A119F
:1011B000B0FBF1F73846FFF761F905460E462846C1
:1011C0003146FFF768F984B22046FFF757F92A46FF
:1011D0003346CDE90001FFF76DF80022374BCDE92A
:1011E0000201FFF76AF80746FFF755F983465846AC
:1011F00064F31F1084B23248806940F00400304923
:1012000088610846C06940F40030C86108464069FA
:1012100040F0010048612B48006820F47F402949D4
:1012200008600846006840F40B40086025480C3010
:10123000006840F0080023490C310860224804800F
:10124000001D008842F22C0108431F49091D088037
:101250001D480C30008840F080001B490C3108808C
:1012600000201A4908601848001F18498039C1F841
:101270008800002015490C31086014498039C1F8F4
:1012800084001248006842F2900108430F498039F7
:10129000C1F8800026208DF8100002208DF8110082
:1012A00003208DF8120001208DF8130004A8FFF729
:1012B00011FA05B0BDE8F08F40420F000000304049
:1012C0000010024000080140084400408000024035
:1012D000094A126822F00102074B803BC3F88020C4
:1012E0001A46C2F88C00C2F88410D2F8802042F06E
:1012F0000102C3F880207047800002401C130008E0
:101300000000002014000000440900083013000809
:1013100014000020040600005409000800FFFF002C
:1013200000000000000000000000000000000000BD
:04000005080000ED02
:00000001FF
