:020000040800F2
:100000002008002001010008090100080B01000878
:100010000D0100080F010008110100080000000098
:1000200000000000000000000000000013010008B4
:100030001501000800000000170100081901000860
:100040001B0100081B0100081B0100081B01000820
:100050001B0100081B0100081B0100081B01000810
:100060001B0100081B0100081B0100081B01000800
:100070001B0100081B0100081B0100081B010008F0
:100080001B0100081B0100081B0100081B010008E0
:100090001B0100081B0100081B0100081B010008D0
:1000A0001B0100081B0100081B0100081B010008C0
:1000B0001B0100081B0100081B0100081B010008B0
:1000C0001B0100081B0100081B0100081B010008A0
:1000D0001B0100084916000899160008ED160008D3
:1000E000F50600081B0100081B010008DFF80CD012
:1000F00000F08EFA00480047D125000820080020B3
:100100000648804706480047FEE7FEE7FEE7FEE7B1
:10011000FEE7FEE7FEE7FEE7FEE7FEE7DD14000888
:10012000ED00000840EA01039B0703D009E008C97D
:10013000121F08C0042AFAD203E011F8013B00F8AC
:10014000013B521EF9D27047D2B201E000F8012BF8
:10015000491EFBD270470022F6E710B513460A4647
:1001600004461946FFF7F0FF204610BD2DE9FE4F6B
:10017000804681EA0300C00F0C46009021F0004148
:1001800023F00045B8EB0200A94105D240462146C4
:1001900090461C460B46024623F00040104347D0D1
:1001A000270DC7F30A00C3F30A510290401A0190C9
:1001B00040286BDAC3F3130040F4801B009892468A
:1001C00020B10023D2EB030A63EB0B0B01985946D5
:1001D000C0F14002504600F08DF906460D465046EB
:1001E0005946019A00F0A5F910EB0800614100247E
:1001F00087EA115284EAE7731A4340D0009A62B347
:10020000019A012A4FEA075215DC001B61EB02013B
:100210004FF0004202EA0752CDE90042001C41F5CE
:10022000801132462B4600F0A5F903B0BDE8F08FEF
:1002300040462146F9E7001B61EB0201001C41F535
:10024000801300185B412018A2F5001747EB03014B
:1002500040EAD570B6196D4111E06D084FEA3606D7
:1002600045EAC0754FEA0752001B61EB0201001C12
:1002700041F5801149084FEA3000001951413246DA
:100280002B4603B0BDE8F04F00F065B9009801229D
:1002900040000023D0EB020263EBE073009821469C
:1002A0004FEAE074B8EB000061EB0401E9E783F08A
:1002B00000435BE781F0004158E72DE9FE4F81EAFA
:1002C000030404F0004421F0004100944FF0000BBF
:1002D00023F0004350EA01045ED052EA03045BD0ED
:1002E000C3F30A54C1F30A552C44A4F2F334019425
:1002F000A0FB0254C1F3130141F48011C3F31303B3
:1003000043F4801301FB024400FB034E840A970A66
:1003100044EA815447EA8357A4FB076802958D0A93
:1003200005FB07854FEA932C04FB0C542705029D1F
:100330004FEA065847EA1637B5EB08056EEB070C8F
:10034000870E920E47EA811742EA8312A7FB020149
:10035000B6EB0B0164EB00042B0D43EA0C335E1883
:1003600044EB1C50DA465146E7FB0201C5F3130487
:100370004FEA0B3343EA14534FEA0432019C43EA39
:100380000603A4F10C040294009CCDE900B400F033
:10039000F1F803B0BDE8F08F00200146F9E72DE940
:1003A000F04D81EA030404F0004B21F000451446AF
:1003B0004FF0000A23F0004150EA050220D054EA31
:1003C00001021DD0C5F30A570246C5F31303C1F35A
:1003D0001300C1F30A5640F4801543F48013A7EBD1
:1003E0000608101BD64608F2FD3873EB050002D351
:1003F00008F1010801E092185B41B8F1000F03DA3F
:1004000000200146BDE8F08D00204FF48011064623
:1004100084460EE0171B73EB050705D3121B63EB35
:10042000050306434CEA010C49084FEA30009218D4
:100430005B4150EA0107EDD152EA030012D082EA93
:10044000040083EA0501084305D0101BAB4106D226
:100450000122002306E000224FF0004302E06FF08B
:10046000010253101AEB06004CEB085110EB0A0086
:1004700041EB0B01BDE8F04D00F06DB80EB540F258
:10048000334102910021CDE900110A460B4600F0EC
:1004900071F803B000BDC1F30A5210B5C1F31301E6
:1004A00040F2FF3341F480119A4201DA002010BD7E
:1004B00040F233439A42A2F2334203DC524200F04C
:1004C00028F810BD904010BD30B50B460146002005
:1004D0002022012409E021FA02F59D4205D303FA06
:1004E00002F5491B04FA02F52844151EA2F1010287
:1004F000F1DC30BD202A04DB203A00FA02F10020B2
:1005000070479140C2F1200320FA03F31943904051
:100510007047202A04DB203A21FA02F000217047BC
:1005200021FA02F3D040C2F120029140084319465B
:100530007047202A06DBCB17203A41FA02F043EA43
:10054000E07306E041FA02F3D040C2F1200291408C
:1005500008431946704710B5141E73F1000408DAF9
:10056000401C41F1000192185B411A4301D120F077
:10057000010010BD2DE9F04D92469B4611B1B1FA34
:1005800081F202E0B0FA80F220329046FFF7B2FF2B
:1005900004460F4640EA0A0041EA0B0153465A4618
:1005A000084313D0114653EA010019D0C8F14002A4
:1005B0005046FFF7AEFF05460E46504659464246A6
:1005C000FFF798FF084305D0012004E02046394694
:1005D000BDE8F08D0020054346EAE0762C43374322
:1005E0000A986305E40AA0EB08000022FD0A44EA29
:1005F00047540A3002D500200146E9E701051019E9
:100600006941DDE9084500196941BDE8F04DA2E7FF
:10061000064C074D06E0E06840F0010394E807004F
:1006200098471034AC42F6D3FFF764FDE43000087D
:10063000043100082DE9F04107468846154604219B
:10064000052000F02DF80021012001F097F880210D
:100650000A2000F0C1FE002405E0395D092001F008
:100660008DF8601CC4B24445F7DB0321012001F082
:1006700085F8FF2400BF052000F0EEFD0646601E51
:10068000C4B21CB106F004000028F4D0222000F00F
:10069000E3FD2870212000F0DFFD6870BDE8F081E7
:1006A00070B505460C460026284600F0D5FD0646E6
:1006B00026EA0401284601F061F870BD70B50024F7
:1006C00014E004F1B00000F039FF102000F036FF14
:1006D000002000F033FF002504E0002000F06EFF52
:1006E000681CC5B2842DF8DB601CC4B2092CE8DBA1
:1006F00070BD000010B54FF400500D49086000F0C7
:100700004FF9BA2000F0FEF800F0A2F910B100F0A5
:1007100069F910BD002000F0B7F80649087000F034
:1007200061F94FF400500249086000BFF1E7000092
:1007300014040140B60000200F48806940F0080012
:100740000D4988610D48006820F47F200B4908603E
:100750000846006840F44C30086008480C300068D7
:1007600040F0100005490C3108600846006840F070
:10077000080008607047000000100240000C0140B3
:1007800010B51648006820F00100144908601348AD
:100790000C38006820F0F00010490C390860084659
:1007A000006840F0300008600C48006820F002004B
:1007B0000A490860022001F091F80848006840F0FA
:1007C000010006490860022001F088F8034800682B
:1007D00020F001000149086010BD00000C0C014030
:1007E0000F48806940F008000D4988610D48006895
:1007F00020F0FF000B4908600846006840F0330015
:10080000086008480C30006840F0010005490C31D0
:1008100008600846006840F0020008607047000069
:1008200000100240000C014010B51648006820F08E
:1008300001001449086013480C38006820F0F000EB
:1008400010490C3908600846006840F03000086024
:100850000C48006840F002000A490860022001F0DC
:100860003DF80848006840F0010006490860022091
:1008700001F034F80348006820F0010001490860E5
:1008800010BD00000C0C014070B5054600241C484A
:10089000006820F0F0001A4908600846006840F03F
:1008A00080000860002620E015480C30006820F029
:1008B000010013490C310860022001F00FF81048C4
:1008C0000C30006840F001000D490C3108606006F2
:1008D000040E081F0068C0F3400008B1601CC4B2D9
:1008E000012000F0FBFF701CC6B2082EDCDB15B93E
:1008F000FFF79AFF01E0FFF743FF204670BD0000BD
:10090000000C014070B504462448006820F0F00057
:10091000224908600846006840F0300008601F481F
:100920000C30006820F001001C490C3108600025E3
:1009300030E004F0800040B118480C30006840F00E
:10094000020016490C31086007E014480C300068BA
:1009500020F0020011490C3108606006040E0220EC
:1009600000F0BCFF0D480C30006840F001000B495E
:100970000C310860022000F0B1FF08480C3000681C
:1009800020F0010005490C310860022000F0A6FFAC
:10099000681CC5B2082DCCDB70BD0000000C014006
:1009A00010B50F48006840F002000D490860084685
:1009B000006840F001000860042000F08FFF084844
:1009C000006820F0020006490860042000F086FF5D
:1009D0000348006820F001000149086010BD0000D4
:1009E0000C0C014010B51948006820F0F0001749C0
:1009F00008600846006840F03000086013480C307A
:100A0000006820F0010011490C31086008460068B8
:100A100020F002000860042000F060FF0B480C305A
:100A2000006840F0010009490C310860012000F025
:100A300055FF06480C30006840F0020003490C31B5
:100A40000860042000F04AFF10BD0000000C0140C7
:100A500010B500241D48006820F0F0001B49086014
:100A60000846006840F08000086018480C300068B4
:100A700040F0020015490C310860012000F02EFF03
:100A800012480C30006840F0010010490C31086039
:100A9000012000F023FF07E0601C84B240F6C41080
:100AA000844201DD012010BD084808300068C0F311
:100AB00040000028F0D105480C30006820F001000B
:100AC00002490C3108600020EDE70000000C0140F5
:100AD00030B599B005460C21244802F0DBF800BF80
:100AE000684602F0E7F8C4B2002CF9D09DF809007E
:100AF00040BB012D12D10D211D4802F0CBF800BFE3
:100B0000684602F0D7F8C4B2002CF9D09DF809006D
:100B100010B9012019B030BD0020FBE7022D23D110
:100B20000D21144802F0B6F800BF684602F0C2F882
:100B3000C4B2002CF9D09DF8090008B90120E9E7FA
:100B40000020E7E79DF80900012801D10220E1E734
:100B50009DF80900022801D10320DBE79DF8090078
:100B6000032801D10420D5E70020D3E75800002056
:100B7000640000207100002010B5002001F02CF866
:100B80000020044908700449088004490870044999
:100B9000087010BD1B000020080000200A00002083
:100BA0000B00002000B500F083FB00F08BFA00F092
:100BB00003F900F007F9412000F08CF800BD70B592
:100BC00005460C46641E05F1AF0000F0B7FCC4F307
:100BD000031101F1100000F0B1FC04F00F0000F06F
:100BE000ADFC70BD1048806940F008000E49886176
:100BF0000E48006880B20D490860084600680C493C
:100C000008430A490860081D00684FF6F071084063
:100C10000649091D0860084600680649084303495B
:100C2000091D08607047000000100240000C0140E0
:100C3000000033830300333310B5FFF7D3FF24489C
:100C4000006820F4807022490860642000F0F0FD04
:100C50001F48006840F480701D490860642000F05F
:100C6000E7FDE22000F06AFC052000F0E1FD2C2009
:100C700000F064FC322000F0DBFD2E2000F05EFC72
:100C8000322000F0D5FD2F2000F058FC052000F0A8
:100C9000CFFD232000F052FC812000F04FFC2820E3
:100CA00000F04CFCA22000F049FCC82000F046FCFB
:100CB000A02000F043FC402000F040FCAF2000F0FA
:100CC0003DFC642000F0B4FDFFF7F8FC10BD00000F
:100CD0000C0C014010B50446412C26D108210846D1
:100CE000FFF7DEFC3D21112000F048FD8621172092
:100CF00000F044FD7F21262000F040FD1E212D2024
:100D000000F03CFD00212C2000F038FD8D212A2030
:100D100000F034FD3E212B2000F030FD4FF47A70BE
:100D200001F090F900F04EF801E0012010BD002024
:100D3000FCE7000070B5002100230F22C47804B343
:100D4000154C246804F4E064C4F5E064210AC1F1A0
:100D50000403CA40447804FA03F184781440214320
:100D600009010E4C0678A155047804F01F050124F2
:100D7000AC4005786D11AD0005F1E025C5F80041E6
:100D800009E0047804F01F050124AC40044D067806
:100D9000761145F8264070BD0CED00E000E400E05F
:100DA00080E100E002490143024A116070470000FF
:100DB0000000FA050CED00E000B503211420FFF758
:100DC0006FFC00BD10B5142000F046FA044604F094
:100DD000030018B90321142000F0FEFA10BDF0B58D
:100DE00087B00546002708210846FFF759FC002177
:100DF0000D2000F0C3FC80210E20FFF751FC932052
:100E00008DF8040020208DF8050006A801AB022211
:100E100001A900900C2000F045F8064686B9002490
:100E200007E001A8005D285501A8005D4740601C4F
:100E3000C4B2042CF5DB01A8005DB84200D0022644
:100E400080210E2000F0C8FA304607B0F0BD2DE931
:100E5000F04187B004460D4616461F468DF8044003
:100E60008DF805503068CDF80600B088ADF80A005E
:100E70003868039006A801AB0C2201A900900E204F
:100E800000F010F88046B8F1000F05D1082000F0FE
:100E9000E3F900F0080008B94FF00208404607B037
:100EA000BDE8F0812DE9FE4F0646884691469A46F8
:100EB000DDF830B0022002900020019000900C2E4E
:100EC00006D00E2E09D1122001901020009005E0CE
:100ED000772001903020009000E000BF00BF019813
:100EE00040F08001022000F049FC80210420FFF73F
:100EF000D7FB0021012000F041FC80210A2000F0F6
:100F00006BFA002506E018F80510092000F036FC01
:100F1000681C85B24D45F6DB3146012000F02EFC01
:100F20000C2E03D180210D2000F056FA4FF41675D7
:100F300000BF042000F090F90446681E85B235B168
:100F400004F0010018B9009820400028F1D0802159
:100F50000D20FFF7A5FB002D38D0062000F07CF90E
:100F600000F01B0078BB002002900198204000F0A8
:100F7000010008B1012002900C2E27D10A2000F0B8
:100F80006BF904460C2000F067F900F007072FB159
:100F9000601E07EBC0008BF8000003E0E006000EC7
:100FA0008BF8000004B90124122C00DD1224002566
:100FB00006E0092000F050F90AF80500681C85B227
:100FC000A542F6DB02E0FFE70220029080210C2020
:100FD00000F002FA0021012000F0D0FB0298BDE8E9
:100FE000FE8F10B587B050208DF8040000208DF8DA
:100FF00005000DF10602022101A8FFF71BFB06A860
:1010000001AB042201A900900C20FFF74BFF04461E
:10101000204607B010BDF0B587B005460E4630201B
:101020008DF804008DF805500DF10602022101A88B
:10103000FFF700FB06A801AB042201A900900C20D9
:10104000FFF730FF07466FB99DF81800902809D1C7
:10105000002404E001A8005D3055601CC4B2102CCF
:10106000F8DB00E00227384607B0F0BD70B587B066
:1010700005460C4608210846FFF712FB07210D2004
:1010800000F07CFB0321142000F0A6F98DF8045039
:1010900006A801AB012201A900900C20FFF702FF76
:1010A000064656B99DF81800102806D19DF8040090
:1010B00020709DF80500607000E00226304607B001
:1010C00070BD000000B51E48006840F002001C49D9
:1010D00008600A2000F0B6FF1948006820F00200FE
:1010E000174908600A2000F0ADFF1548006840F07D
:1010F0000200134908600A2000F0A4FF0F2101201C
:1011000000F03CFB0A2000F09DFF3D21112000F083
:1011100035FB1E212D2000F031FB00212C2000F09A
:101120002DFB8D212A2000F029FB3E212B2000F0F1
:1011300025FB4021152000F021FB002000BD000010
:101140000C0C014070B587B0054693208DF8040063
:1011500070208DF8050000208DF80A0000240BE0B7
:10116000295D01AAA01C11549DF80A00295D484080
:101170008DF80A00601CC4B2042CF1DB0DF10B02E7
:10118000072101A8FFF756FA08210846FFF788FA59
:1011900006A801AB092201A900900C20FFF782FEEE
:1011A00006462EB99DF81800182801D1002600E047
:1011B0000226304607B070BDF0B587B006460F4630
:1011C000A0208DF804008DF805600DF106020221C3
:1011D00001A8FFF72FFA06A801AB042201A900908D
:1011E0000C20FFF75FFE05464DB99DF81800042856
:1011F00005D19DF8040000F00F000A2800D0022558
:1012000015BB002404E0385D01A90855601CC4B278
:10121000102CF8DB05AA102101A8FFF70BFA06A88D
:1012200001AB122201A900900C20FFF73BFE0546FE
:101230004DB99DF81800042805D19DF8040000F070
:101240000F000A2800D00225284607B0F0BD10B5CF
:1012500000F026FE10BD000070B5044600267E207A
:1012600000EA440040F080050C48006840F010009F
:101270000A4908600846006820F010000860284607
:1012800000F07CF8002000F079F80646034800687A
:1012900040F0100001490860304670BD0C08014064
:1012A00010B5A02000F0CEFDFFF7D1FF10BD00006B
:1012B0002D48806940F480502B4988610846806938
:1012C00040F0080088610846806940F004008861A9
:1012D0002648006880B2254908600846006824490D
:1012E00008432249086021480C30006840F0E000C3
:1012F0001E490C3108601F48006820F0F0001D49AD
:1013000008600846006840F0300008601A4800880D
:10131000194908800846008840F400700880084693
:10132000008840F4807008800846008840F004007F
:1013300008800846008808800846008820F00200DF
:1013400008800846008820F00100088008460088D0
:1013500040F0380008800846008808800846008869
:1013600040F0400008807047001002400008014033
:101370000000B3BB000C01400030014010B5044632
:10138000002307E0581C83B24FF6FE70834201D160
:10139000002010BD0F48008900F002000028F1D0A5
:1013A0000C488481002307E0581C83B24FF6FE707E
:1013B000834201D10020ECE70648008900F00100DB
:1013C0000028F1D01E2000F03DFE02488089C0B206
:1013D000DFE700000030014070B505460C460026EE
:1013E0002846FFF739FF064646EA0401284600F082
:1013F000C5F970BD10B500F001F810BD0CB50020A6
:10140000019000903348006840F480303149086012
:1014100000BF3048006800F4003000900198401C84
:101420000190009818B90198B0F5A06FF1D1294842
:10143000006800F4003010B10120009001E00020AD
:1014400000900098012843D12348006840F0100024
:10145000214908600846006820F00300086008463B
:10146000006840F0020008601A4840681949486066
:101470000846406848600846406840F4806048601C
:101480000846406820F47C1048600846406840F4F4
:10149000E81048600846006840F08070086000BFAF
:1014A0000C48006800F000700028F9D00948406836
:1014B00020F00300074948600846406840F00200F9
:1014C000486000BF0348406800F00C000828F9D1CC
:1014D0000CBD0000001002400020024010B513486F
:1014E000006840F001001149086008464068104952
:1014F00008400E494860084600680E4908400B49FC
:1015000008600846006820F48020086008464068AB
:1015100020F4FE0048604FF41F008860FFF76AFF68
:101520004FF000600449086010BD00000010024048
:101530000000FFF8FFFFF6FE08ED00E070B504467E
:101540001D48006820F400401B49086008460068F8
:1015500020F480500860002524E01748006820F43B
:101560008040154908600A2000F0B8F904F08000B6
:1015700030B11148006840F400500F49086005E0A0
:101580000D48006820F400500B4908600A480068C4
:1015900040F48040084908600A2000F09FF9640088
:1015A000681CC5B2082DD8DB0348006840F4004031
:1015B0000149086070BD00000C0C0140194A126816
:1015C00022F40042174B1A601A46126842F4805205
:1015D0001A6000211DE0134A126822F48042114B68
:1015E0001A6000F080022AB11A46126842F40052D2
:1015F0001A6005E00B4A126822F40052094B1A6087
:10160000084A126842F48042064B1A6040004A1CA5
:10161000D1B20829DFDB034A126842F40042014BD1
:101620001A6070470C0C014000BF0649098801F0A0
:1016300080010029F9D0C0F30801024A121D11806F
:1016400070470000003801400F48008800F020007B
:10165000C8B10D48001D00880C490D4A12888854F5
:101660000B480088401C0A4908800888C11700EB15
:1016700011610912A0EB0121054A1180054800887B
:10168000401C044908807047003801401A020020BD
:10169000BA000020BC0000201048008800F02000A4
:1016A000D0B10E48001D00880D490E4A128888549A
:1016B0000C480088401C0B4908800B480088401CDF
:1016C0000949088007490888C11700EB1161091210
:1016D000A0EB0121034A1180704700000044004044
:1016E0001A030020C4000020C6000020002110487A
:1016F000008800F02000D0B10D48001D0088C1B264
:101700000C480D4A128881540B480088401C0A4A34
:1017100010801088C21700EB12621212A0EB022296
:10172000054B1A8005480088401C044A1080704709
:10173000004800401A010020360000203800002038
:1017400010B59AB010210C4801F0A4FA00BF01A80E
:1017500001F0B0FAC4B2002CF9D09DF80D0010B918
:1017600000201AB010BD9DF80D00012801D1022003
:10177000F7E70320F5E700004800002070B50446B5
:101780000D467E2000EA44060B48006840F0100039
:10179000094908600846006820F0100008603046DB
:1017A000FFF7ECFD2846FFF7E9FD0348006840F02D
:1017B00010000149086070BD0C0801400FB4054BD2
:1017C00010B503A9044A029800F0B8F810BC5DF8FF
:1017D00014FB000055230008C800002002E008C8E0
:1017E000121F08C1002AFAD170477047002001E09B
:1017F00001C1121F002AFBD17047000000214FF0E9
:10180000E0221161C0F3CF01074A11801146098817
:1018100001EB4102C2EBC1114FF6FF7202EAC101B6
:10182000024A118070470000BE000020C000002066
:1018300008B500210091B0F5E16F01D94FF4E160E6
:101840001549098848434FF0E021096921F0010159
:101850004FF0E0221161114648610021916111466B
:10186000096941F00101116100BF4FF0E0210969F0
:101870000091009901F4803121B9009901F0010132
:101880000029F2D14FF0E021096921F001014FF068
:10189000E022116108BD0000C00000202DE9F041E8
:1018A00005460E4600220C4B28463146FEF705FD44
:1018B0000746FEF7F0FD044605E04FF4E160FFF750
:1018C000B7FFA4F5E164B4F5E16FF6D82046FFF761
:1018D000AFFFBDE8F081000000408F4008B5002157
:1018E00000911549098848434FF0E021096921F02A
:1018F00001014FF0E0221161114648610021916120
:101900001146096941F00101116100BF4FF0E0216A
:1019100009690091009901F4803121B9009901F021
:1019200001010029F2D14FF0E021096921F0010104
:101930004FF0E022116108BDBE0000202DE9FF4FED
:1019400089B09B460446002506E025280BD05A4660
:101950000B999047641C6D1C20780028F5D10DB0C0
:101960002846BDE8F08F0027B8460122474900E02D
:10197000074314F8013F203B02FA03F00842F7D175
:1019800020782E2819D114F8010F47F004072A28CF
:101990000ED06FF02F022078A0F1300109290CD869
:1019A00008EB880102EB410100EB0108641CF2E73F
:1019B0000A98641C50F8048B0A9020780028CED036
:1019C000642808D0692806D075281ED05A460B997D
:1019D00090476D1C58E00A994FF00A0901C90A9115
:1019E000002802DA40422D2102E0390504D52B21DE
:1019F0008DF82010012103E0F90704D02021F7E73A
:101A00008A4608AE0DE00021FAE70A994FF00A096C
:101A100001C90A91F7E74946FEF756FD303106F84D
:101A2000011D0028F7D1ADEB060000F12009780771
:101A300001D44FF00108C84502DDA8EB090000E021
:101A400000208046002706E008A85A46C05D0B9992
:101A500090476D1C7F1C5745F6DB04E030205A464A
:101A60000B9990476D1CB8F10001A8F10108F5DC55
:101A700005E016F8010B5A460B9990476D1CB9F119
:101A80000001A9F10109F4DC641C65E709280100E3
:101A900010B5FEF713FEFFF753FE01280DD133A258
:101AA000002100F0D5FF012000F084F84FF4FA7017
:101AB000FFF7BEFE002000F07DF82F480068A22846
:101AC00052D23220FFF7B4FE012000F073F84FF439
:101AD000FA70FFF7ADFE002000F06CF8FEF7EEFDA7
:101AE00026A20021032000F0B3FF00202649FFF7C3
:101AF000D5FE00F0B1FA012836D14FF4FA70FFF7A5
:101B000097FEFEF7DBFD21A20021032000F0A0FFDD
:101B100021A20021032000F09BFF4FF4FA60FFF7A1
:101B200087FE15480068401C00F0DAFE01281BD132
:101B3000FEF7C4FD1BA20021032000F089FF0E4820
:101B40000068401C0C4908606420FFF771FE01200A
:101B500000F030F86420FFF76BFE002000F02AF858
:101B600000201349FFF79AFE002010BD20CED5CAF1
:101B7000D6B3C9B9A60000003C00002020C7EBB0D6
:101B8000B4CFC2CAD6D6B8000000104020C2BCC82C
:101B9000EBCDEAB1CF00000020C7EBCBC9BFAACA8A
:101BA000D6D6B80020B4E6B4A2B3C9B9A6000000E6
:101BB0000000084030B10749096841F40041054A76
:101BC000116005E00349096821F40041014A1160F0
:101BD000704700000C080140072800DD7047082806
:101BE0005BD2DFE800F0040B17232F3B47532C494F
:101BF000096841F4C8512A4A11604EE02849096831
:101C000041F4C051264A11601146096821F48071DF
:101C1000116042E02249096841F48851204A11606C
:101C20001146096821F40061116036E01C49096819
:101C300041F410611A4A11601146096821F480517B
:101C400011602AE01649096841F48051144A116074
:101C50001146096821F4106111601EE010490968FD
:101C600041F400610E4A11601146096821F488515F
:101C7000116012E00A49096841F48071084A116054
:101C80001146096821F4C051116006E00449096851
:101C900021F4C851024A116000BF00BF00BF9DE798
:101CA0000C0801401248806940F005001049886125
:101CB0001048406840F000700E4948600E480068C7
:101CC0000E4908400C490860084600680C49084362
:101CD0000949086008480830006820F400400649B7
:101CE000083108600846006840F4C8500860704732
:101CF000001002400000014004080140F00FF00F06
:101D00000330033010B5FEF7D9FC4FF4FA70FFF73B
:101D10008FFD0120FFF74EFF4FF4FA70FFF788FDAB
:101D20000020FFF747FFFEF7C9FC2CA2002103208B
:101D300000F08EFE4FF4FA60FFF77AFD00F00EFE21
:101D4000294908600846006800B308460068B0F5F5
:101D50007A7F1BD80120FFF72DFF4FF4FA70FFF7B1
:101D600067FD0020FFF726FFFEF7A8FC1FA2002159
:101D7000012000F06DFE20A20021032000F068FE8B
:101D800040F6B830FFF754FD012010BD164800683A
:101D900008BBFEF793FC1BA20021012000F058FEB7
:101DA0000120FFF707FF6420FFF742FD0020FFF747
:101DB00001FF6420FFF73CFD0120FFF7FBFE6420DC
:101DC000FFF736FD0020FFF7F5FE40F6B830FFF7CD
:101DD0002FFD0020D9E700BFD7E7000020C7EBB0F8
:101DE000B4CFC2CAD6D6B8004000002020CAB6B1CF
:101DF000F0B3C9B9A600000020BBB6D3ADBBD8C0B4
:101E0000B400000020CAB6B1F0CAA7B0DC000000E0
:101E100030B501460B780A46C878001DC5B2521C81
:101E2000012404E010784340521C601CC4B2AC4250
:101E3000F8DB91F82200984201D1002030BD01204A
:101E4000FCE7000010B50446FEF796FEA02C06D075
:101E5000A12C08D0A22C0DD0A32C19D111E0A520C3
:101E60000D49087015E0A1200B49087004200B49AA
:101E700008800EE0A2200849087004200749088065
:101E800007E0A3200449087007200449088000E007
:101E900000BF00BF10BD00000A00002008000020A5
:101EA00070B5FFF70FF95A492620FFF7DFF805460E
:101EB00005B170BD5648801CFEF791FF054605B17F
:101EC000F7E754485249D1F802100160FFF73AF998
:101ED000054605B1EDE750480078A3281DD1002044
:101EE0004D4908704D4801784A4B4D4A6020FEF735
:101EF000AEFF054605B1DCE7484908784949FFF7D8
:101F00005BF9054605B1D4E7FFF76BF80720FFF74B
:101F100063FE01204449087077E03F480078A1281B
:101F200027D100203C4908703C480178394B3C4A95
:101F30006020FEF78CFF054605B1BAE737490878FF
:101F40003A49FFF768F8054605B1B2E7002405E015
:101F50003649085DFFF768FB601CC4B2102CF7DB44
:101F6000FFF73FF80720FFF737FE01202E490870E2
:101F70004BE029480078A22827D100202649087084
:101F800026480178234B264A6020FEF760FF05466D
:101F900005B18EE7214908782549FFF70DF9054677
:101FA00005B186E7002405E02149085DFFF73CFB09
:101FB000601CC4B2102CF7DBFFF713F80720FFF703
:101FC0000BFE0120184908701FE013480078A5286F
:101FD0001BD100201049087000240AE00D48005D64
:101FE000144908550B48015D13A0FFF7E7FB601C7F
:101FF000C4B2042CF2DBFEF7F4FF0720FFF7ECFD80
:102000000120094908700E49087000BF51E700001F
:10201000EC000020120000200A0000200800002030
:102020000C0000200A0100201B000020CC00002032
:10203000DC0000201600002049443D25640A000011
:102040001A000020002103E000BF00BF00BF491CB0
:102050008142F9D37047000070B59AB00025002482
:102060000F218FA000F016FE6FE0FEF727FB90A275
:102070000021032000F0ECFC4FF47A70FFF7D8FB4E
:102080000120FEF725FD0546012D15D1FEF716FBB3
:102090008AA20021032000F0DBFC00240120FFF7CE
:1020A00089FD6420FFF7C4FB0020FFF783FD4FF498
:1020B000FA60FFF7BDFB49E0022D16D1FEF7FEFAEC
:1020C00082A20021032000F0C3FC83A2002105208E
:1020D00000F0BEFC4FF47A70FFF7AAFB601CC4B29C
:1020E000282C32DB00201AB070BD032D15D1FEF76D
:1020F000E5FA7CA20021032000F0AAFC7CA20021CA
:10210000052000F0A5FC4FF47A70FFF791FB601CEE
:10211000C4B2282C19DB0020E5E7042D15D1FEF709
:10212000CDFA70A20021032000F092FC74A20021DD
:10213000052000F08DFC4FF47A70FFF779FB601CEE
:10214000C4B2282C01DB0020CDE78EE700BF4FF49E
:102150007A70FFF76DFBA2E0FEF7B0FA54A20021FF
:10216000032000F075FC4FF47A70FFF761FB02204A
:10217000FEF7AEFC0546012D47D1FEF79FFA64A29B
:102180000021032000F064FC4FF4FA60FFF750FBDD
:102190000C21634800F07EFD00BF01A800F08AFD1D
:1021A000C6B2002EF9D09DF80D0008BBFEF786FAE6
:1021B0005CA20021032000F04BFC0120FFF7FAFC99
:1021C0006420FFF735FB0020FFF7F4FC6420FFF7E5
:1021D0002FFB0120FFF7EEFC6420FFF729FB002016
:1021E000FFF7E8FC4FF4FA60FFF722FB01207AE7E3
:1021F000FEF764FA4FA20021032000F029FC4FF4FF
:102200007A70FFF715FB00206DE7022D15D1FEF760
:1022100055FA34A20021032000F01AFC2EA200215E
:10222000052000F015FC4FF47A70FFF701FB601CED
:10223000C4B2192C33DB002055E7032D15D1FEF76E
:102240003DFA28A20021032000F002FC28A2002170
:10225000052000F0FDFB4FF47A70FFF7E9FA601CEF
:10226000C4B2192C1BDB00203DE7042D15D1FEF76D
:1022700025FA1CA20021032000F0EAFB20A2002185
:10228000052000F0E5FB4FF47A70FFF7D1FA601CEF
:10229000C4B2192C03DB002025E7002023E75BE70D
:1022A000BFAACABCB2C9BCAFD6B8CEC62E2E2E00AD
:1022B00020BFAACABCC2BCC8EB00000020B5DAD25D
:1022C000BBB4CEB2C9BCAFB3C9B9A600B2C9BCAF2A
:1022D000CAA7B0DC00000000B4ABB0FCB4EDCEF394
:1022E0000000000020B2C9BCAFCAA7B0DC000000EB
:1022F000B4ABB8D0C6F7C9CFCEDECAD6D6B80000C8
:10230000D6B8CEC6CCD8D5F7B2BBC3F7CFD4000071
:1023100020B5DAB6FEB4CEB2C9BCAFB3C9B9A60017
:102320008F00002020BACFB3C9C4A3B0E5B3C9B9A8
:10233000A600000020BACFB3C9CAA7B0DC000000D5
:1023400010B54FF41651242000F012FD6420FFF761
:102350006FFA10BD70B504460D46E0B200F0B2FA57
:10236000204670BD2DE9F04704460E4617461B482F
:10237000006820F0200019490860032000F038FBB5
:10238000C4F3074000F034FBC4F3072000F030FB37
:10239000E0B200F02DFB002515E070193946FEF77C
:1023A0000EFC4FF0000809E000F058F8814648465E
:1023B000FFF704F908F1010000F0FF08B8F1100F71
:1023C000F2DB681CC5B2022DE7DB0448006840F070
:1023D000200002490860BDE8F08700000C0C0140B5
:1023E0002DE9F04704460E4617461B48006820F0CA
:1023F000200019490860032000F0FAFAC4F30740EE
:1024000000F0F6FAC4F3072000F0F2FAE0B200F0B0
:10241000EFFA002515E070193946FEF7D0FB4FF0B2
:10242000000809E000F01AF881464846FFF7C6F8B0
:1024300008F1010000F0FF08B8F1080FF2DB681C9A
:10244000C5B2022DE7DB0448006840F020000249D5
:102450000860BDE8F08700000C0C014070B5002456
:1024600000251FE01148006820F010000F490860A7
:102470000120FFF733FA6006040E0C48001F0068C5
:10248000C0F3C01010B1601CC4B200E0E4B2074851
:10249000006840F01000054908600120FFF71EFAAF
:1024A000681CC5B2082DDDDB204670BD0C0C014058
:1024B00008B52448806940F011002249886122480B
:1024C000406820F47000204948600846406840F4A5
:1024D000000048601D48406920F0F0011B48416140
:1024E000406940F02001194841611948006840F4F2
:1024F000005017490860081D006820F40050091DAD
:10250000086013480838006840F400501049083942
:10251000086028208DF8000002208DF801000020BE
:102520008DF8020001208DF803006846FEF702FCDA
:102530000A20FFF77DF9FEF753F90A20FFF778F933
:1025400008BD0000001002400010014000000140E2
:102550000804014010B50446012C10D10B48006856
:1025600040F400700949086000200949FFF796F916
:102570000648006820F400700449086005E003483C
:10258000006820F400700149086010BD0C0C014087
:102590000000F83F0C48806940F008000A49886153
:1025A0000A48006820F0F000084908600846006802
:1025B00040F03000086005480830006820F40070E2
:1025C000024908310860704700100240040C0140C5
:1025D0008AB04FF4A060FEF7E5FBFFF763FB4FF412
:1025E0006141482000F0B6FA4FF46141242000F028
:1025F000C9FC4820FFF702F9FEF79EF84FF461414D
:10260000482000F0B5FBFEF7CDFAFEF7B5FAFEF76D
:10261000E9FAFEF711FBFEF751F8FFF749FFFFF764
:10262000B9FFFFF78DFE00203E4908700220FFF73A
:10263000D3FA75E0FEF742F83BA22121012000F019
:1026400007FA3CA22221032000F002FA3CA2272133
:10265000052000F0FDF901A800F08AF80446002CDE
:1026600048D19DF80600012806D0022808D0042889
:1026700021D005283DD13BE00120FFF76BFF38E07A
:102680009DF8080010B9FFF703FA13E09DF8080061
:1026900001280FD1FFF736FB0546012D05D1FFF7C5
:1026A00059FF0220FFF798FA03E015B90220FFF75F
:1026B00093FA00BF1DE09DF80800012809D1FDF73D
:1026C000FDFF21A21521032000F0C2F90120FFF730
:1026D00041FF9DF80800022806D1FDF7EFFF1EA27A
:1026E0001021032000F0B4F900200E49087000E02A
:1026F00000BF00BF0B48007810B9FEF7D1FD0BE01A
:1027000008480078012807D1184B0422114600F030
:102710007BF80220034908704FF4FA70FFF788F83D
:1027200088E700001A00002020666F7277617264EB
:1027300000000000BBB6D3ADB9E2C1D90000000073
:10274000C7EBCBA2BFA80000BBB6D3ADB9E2C1D9DD
:1027500020C7EBBDF8000000CAB6B1F0CAA7B0DCD4
:1027600020C7EBD6D8D0C2CBA2BFA800160000204D
:1027700030B58DB005460121684600F08FFBC4B22C
:1027800014B901200DB030BD2146684600F08CF828
:102790009DF80000BB2803D19DF80100AA2801D0B4
:1027A0000220EFE79DF80600082804D09DF80600F7
:1027B00008B10320E6E724212846FDF7CCFCE21E01
:1027C0000DF105012846FDF7ADFCE01E1DF80000E7
:1027D00085F82200A01E1DF8000085F82300284679
:1027E000FFF716FB08B10420CCE72878032806D1B0
:1027F000044B0122002100F007F80520C2E7002069
:10280000C0E70000000000202DE9F0438DB007462E
:10281000884615461E464FF0080988EA07006840BA
:1028200080EA0909AA208DF80000BB208DF801007C
:1028300000208DF802001A4800788DF8030019482E
:1028400000788DF804008DF8057008208DF80600DA
:102850008DF807808DF8085000240AE0317804F1E3
:1028600009000DF80010307880EA0909761C601C18
:10287000C4B2AC42F2DB04F109000DF80090EE2185
:10288000401C0DF80010FF21401C0DF80010411CE9
:10289000684600F011FC00200DB0BDE8F083000098
:1028A000010000200200002010B502460B46002463
:1028B00005E0107800F006F8521C601C84B29C42BF
:1028C000F7DB10BD00BF0549098801F08001002930
:1028D000F9D00249091D0880704700000038014006
:1028E000F0B5ADB0054600240026502119A8FDF72B
:1028F00032FC00BF05E01848005D19A90855601CAE
:10290000C4B20F2CF7DB280A8DF86F00E8B28DF8FF
:102910007000062404E019A8005D0644601CC4B2DF
:102920000D2CF8DB300A8DF87100F0B28DF87200D2
:102930000F2119A800F0AEF900BF684600F0BAF9FF
:10294000C7B2002FF9D09DF8090010B901202DB0B1
:10295000F0BD0020FBE700009B00002030B599B0DF
:1029600000253AE00C211F4800F094F900BF6846AA
:1029700000F0A0F9C4B2002CF9D09DF8090050BBBA
:102980000D21194800F086F900BF684600F092F961
:10299000C4B2002CF9D09DF80900E0B91121134808
:1029A00000F078F900BF684600F084F9C4B2002C4A
:1029B000F9D09DF8090040B99DF80B009DF80A1068
:1029C00040EA0120C0B219B030BD9DF809000928C5
:1029D00001D10020F7E7681CC5B2142DC2DB00202E
:1029E000F1E7000058000020640000207E00002075
:1029F00070B50446002525E01448006820F010005A
:102A0000124908600A20FEF769FF04F0800030B127
:102A10000E48006840F040000C49086005E00B4893
:102A2000006820F04000094908606006040E07486D
:102A3000006840F01000054908600A20FEF74EFFCC
:102A4000681CC5B2082DD7DB70BD00000C0C01401E
:102A50002DE9F04107460E461546002470E0285D3A
:102A6000B02824DB285DF72821DC601C285CA12825
:102A70001DDB285DB0385E21484334490860601C86
:102A8000285C00F2AD200968084430490860084617
:102A9000006840010860324639462C480068FFF75C
:102AA00061FCA01CC4B206F11000C6B248E0285D6B
:102AB000A12823DB285DA32820DC601C285CA1283A
:102AC0001CDB285DA1385E21484320490860601C5A
:102AD000285CA138096808441C4908600846006859
:102AE000400108603246394618480068FFF73AFC52
:102AF000A01CC4B206F11000C6B221E0285D202857
:102B00001CDB285D7E2819DC285D20380F49086011
:102B10000846006800010860084600680C4908443F
:102B20000A4908603246394608480068FFF758FCF1
:102B3000601CC4B206F10800C6B201E0601CC4B259
:102B4000285D00288BDCBDE8F0810000300000200B
:102B500080CF03002DE9F34F85B08B464FEA0B1071
:102B6000FDF78CFC06460F460598FDF787FC80466E
:102B70000022424BFDF7A1FB32463B46CDE9000166
:102B8000FDF70DFC04460D4620462946FDF783FC63
:102B90001FFA80FA5046FDF771FC064622462B4686
:102BA000FDF788FB0022364BCDE90001FDF785FBE0
:102BB0008046FDF770FC80B2029002986AF31F1005
:102BC0001FFA80FA2F48806944F2040108432D4916
:102BD00088610846406940F0010048612A48006861
:102BE00020F47F60284908600846006840F40B60C4
:102BF000086025480830006840F4806022490831A8
:102C000008602248A0F800A0001D008840F00C00D9
:102C10001E49091D08800846008840F400500880BD
:102C20000846008840F02000088018480C300088D2
:102C300040F0800015490C3108801448001F1449E9
:102C4000C86400200865886448640846406C41F206
:102C5000900108430E49486425208DF80C0003209C
:102C60008DF80D008DF80E0001208DF80F0003A8DF
:102C7000FEF760F807B0BDE8F08F000080842E41B9
:102C800000003040001002400408014008380140B4
:102C900000000240064AD26922F00102044BDA61C8
:102CA0001A4690621162D26942F00102DA617047FD
:102CB000000002402DE9F84305462A48B0F800809C
:102CC00008F10700C11700EB11610912A0EB012107
:102CD0008FB2781CC11700EB11610912A0EB012122
:102CE0001FFA81F9002000901AE0BDF8000038B901
:102CF0001D4810F809001C49C95D40EA01200090F8
:102D0000BDF8000040B119480488BDF80000093042
:102D1000844200DA04E004E00120FEF789FD00BFF0
:102D2000E3E700BF002011490880002615E00E48A7
:102D30000C490988405C28706D1C0A480088401CBA
:102D4000084908800888C11700EB11610912A0EB3F
:102D50000121044A1180701C86B2A642E7DB20469E
:102D6000BDE8F883340000201A010020380000205C
:102D70002DE9F34F85B08B464FEA0B10FDF77EFB34
:102D800006460F460598FDF779FB804600223D4B2D
:102D9000FDF793FA32463B46CDE90001FDF7FFFA15
:102DA00004460D4620462946FDF775FB1FFA80FABA
:102DB0005046FDF763FB064622462B46FDF77AFA9E
:102DC0000022314BCDE90001FDF777FA8046FDF78F
:102DD00062FB80B2029002986AF31F101FFA80FA19
:102DE0002A48806940F00800284988610846C0697F
:102DF00040F48020C8612648006820F47F402449C0
:102E000008600846006840F40B400860204808301D
:102E1000006840F400601E49083108601D48A0F8B1
:102E200000A0001D008842F22C0108431949091D29
:102E3000088018480C30008840F0800015490C319B
:102E400008801448001F1449486200208862086204
:102E5000C8610846C06942F2900108430E49C86142
:102E600027208DF80C0002208DF80D0003208DF82E
:102E70000E0001208DF80F0003A8FDF75BFF07B0DF
:102E8000BDE8F08F80842E410000304000100240E9
:102E9000040C01400848004000000240F0B5024622
:102EA0000C4634480388008808B90020F0BDF4B906
:102EB0000020304E3080002115E02F482F4E3688FC
:102EC000805D1070521C2D480088401C2B4E3080B5
:102ED0003088C61700EB16663612A0EB0626274F81
:102EE0003E80481C81B29942E7DB1846DEE7234862
:102EF000018800BF0846CE1701EB16663612A1EB1B
:102F00000626B1B21C48405CEE2806D11A4E481C79
:102F1000305CFF2801D1012507E019480088814273
:102F200000D102E0481C81B2E4E700BF0DB90020E7
:102F3000BCE71048038800200E4E3080002115E0C9
:102F40000D480E4E3688805D1070521C0B4800886C
:102F5000401C0A4E30803088C61700EB16663612C9
:102F6000A0EB0626054F3E80481C81B29942E7DB64
:102F700018469BE7C60000201A030020C20000206C
:102F8000C40000202DE9F04F85B081468A464448B0
:102F900009FB00F04FEA0A11B0FBF1F73846FDF7E4
:102FA0006DFA05460E4628463146FDF774FA84B29E
:102FB0002046FDF763FA2A463346CDE90001FDF7C6
:102FC00079F90022374BCDE90201FDF776F9074682
:102FD000FDF761FA8346584664F31F1084B2324805
:102FE000806940F00400304988610846C06940F4B7
:102FF0000030C8610846406940F0010048612B4834
:10300000006820F47F40294908600846006840F4C1
:103010000B40086025480C30006840F00800234948
:103020000C31086022480480001D008842F22C0107
:1030300008431F49091D08801D480C30008840F0D6
:1030400080001B490C31088000201A49086018488C
:10305000001F18498039C1F88800002015490C313B
:10306000086014498039C1F884001248006842F2AF
:10307000900108430F498039C1F8800026208DF85F
:10308000100002208DF8110003208DF8120001209D
:103090008DF8130004A8FDF74DFE05B0BDE8F08FD4
:1030A00040420F0000003040001002400008014084
:1030B0000844004080000240094A126822F00102E0
:1030C000074B803BC3F880201A46C2F88C00C2F838
:1030D0008410D2F8802042F00102C3F880207047AB
:1030E000800002400431000800000020CC000000F5
:1030F000DC170008D0310008CC0000205407000085
:10310000EC17000800FFFF000000000000000000B6
:10311000FFFFFFFFFFFF00000000000000000000B5
:1031200000000000000000000000000034B21EEBB0
:10313000000000000000000000000000000000008F
:10314000000000000000000000000000EF01FFFF91
:10315000FFFF0100071300000000001BEF01FFFF4D
:10316000FFFF010003010005EF01FFFFFFFF01006A
:103170000402010008EF01FFFFFFFF01000402024B
:103180000009EF01FFFFFFFF010008040100000339
:10319000E700F8EF01FFFFFFFF010003050009EF63
:1031A00001FFFFFFFF01000606020000000FEF0114
:1031B000FFFFFFFF0100030D0011000000000000F1
:1031C00000000000000000000000000000000000FF
:04000005080000ED02
:00000001FF
