:020000040800F2
:100000009806002001010008090100080B01000802
:100010000D0100080F010008110100080000000098
:1000200000000000000000000000000013010008B4
:100030001501000800000000170100081901000860
:100040001B0100081B0100081B0100081B01000820
:100050001B0100081B0100081B0100081B01000810
:100060001B0100081B0100081B0100081B01000800
:100070001B0100081B0100081B0100081B010008F0
:100080001B0100081B0100081B0100081B010008E0
:100090001B0100081B0100081B0100081B010008D0
:1000A0001B0100081B0100081B0100081B010008C0
:1000B0001B0100081B0100081B0100081B010008B0
:1000C0001B0100081B0100081B0100081B010008A0
:1000D0001B01000879120008C91200081B01000862
:1000E0001B0100081B0100081B010008DFF80CD0F1
:1000F00000F08EFA00480047F91A00089806002020
:100100000648804706480047FEE7FEE7FEE7FEE7B1
:10011000FEE7FEE7FEE7FEE7FEE7FEE70D1100085B
:10012000ED00000840EA01039B0703D009E008C97D
:10013000121F08C0042AFAD203E011F8013B00F8AC
:10014000013B521EF9D27047D2B201E000F8012BF8
:10015000491EFBD270470022F6E710B513460A4647
:1001600004461946FFF7F0FF204610BD2DE9FE4F6B
:10017000804681EA0300C00F0C46009021F0004148
:1001800023F00045B8EB0200A94105D240462146C4
:1001900090461C460B46024623F00040104347D0D1
:1001A000270DC7F30A00C3F30A510290401A0190C9
:1001B00040286BDAC3F3130040F4801B009892468A
:1001C00020B10023D2EB030A63EB0B0B01985946D5
:1001D000C0F14002504600F08DF906460D465046EB
:1001E0005946019A00F0A5F910EB0800614100247E
:1001F00087EA115284EAE7731A4340D0009A62B347
:10020000019A012A4FEA075215DC001B61EB02013B
:100210004FF0004202EA0752CDE90042001C41F5CE
:10022000801132462B4600F0A5F903B0BDE8F08FEF
:1002300040462146F9E7001B61EB0201001C41F535
:10024000801300185B412018A2F5001747EB03014B
:1002500040EAD570B6196D4111E06D084FEA3606D7
:1002600045EAC0754FEA0752001B61EB0201001C12
:1002700041F5801149084FEA3000001951413246DA
:100280002B4603B0BDE8F04F00F065B9009801229D
:1002900040000023D0EB020263EBE073009821469C
:1002A0004FEAE074B8EB000061EB0401E9E783F08A
:1002B00000435BE781F0004158E72DE9FE4F81EAFA
:1002C000030404F0004421F0004100944FF0000BBF
:1002D00023F0004350EA01045ED052EA03045BD0ED
:1002E000C3F30A54C1F30A552C44A4F2F334019425
:1002F000A0FB0254C1F3130141F48011C3F31303B3
:1003000043F4801301FB024400FB034E840A970A66
:1003100044EA815447EA8357A4FB076802958D0A93
:1003200005FB07854FEA932C04FB0C542705029D1F
:100330004FEA065847EA1637B5EB08056EEB070C8F
:10034000870E920E47EA811742EA8312A7FB020149
:10035000B6EB0B0164EB00042B0D43EA0C335E1883
:1003600044EB1C50DA465146E7FB0201C5F3130487
:100370004FEA0B3343EA14534FEA0432019C43EA39
:100380000603A4F10C040294009CCDE900B400F033
:10039000F1F803B0BDE8F08F00200146F9E72DE940
:1003A000F04D81EA030404F0004B21F000451446AF
:1003B0004FF0000A23F0004150EA050220D054EA31
:1003C00001021DD0C5F30A570246C5F31303C1F35A
:1003D0001300C1F30A5640F4801543F48013A7EBD1
:1003E0000608101BD64608F2FD3873EB050002D351
:1003F00008F1010801E092185B41B8F1000F03DA3F
:1004000000200146BDE8F08D00204FF48011064623
:1004100084460EE0171B73EB050705D3121B63EB35
:10042000050306434CEA010C49084FEA30009218D4
:100430005B4150EA0107EDD152EA030012D082EA93
:10044000040083EA0501084305D0101BAB4106D226
:100450000122002306E000224FF0004302E06FF08B
:10046000010253101AEB06004CEB085110EB0A0086
:1004700041EB0B01BDE8F04D00F06DB80EB540F258
:10048000334102910021CDE900110A460B4600F0EC
:1004900071F803B000BDC1F30A5210B5C1F31301E6
:1004A00040F2FF3341F480119A4201DA002010BD7E
:1004B00040F233439A42A2F2334203DC524200F04C
:1004C00028F810BD904010BD30B50B460146002005
:1004D0002022012409E021FA02F59D4205D303FA06
:1004E00002F5491B04FA02F52844151EA2F1010287
:1004F000F1DC30BD202A04DB203A00FA02F10020B2
:1005000070479140C2F1200320FA03F31943904051
:100510007047202A04DB203A21FA02F000217047BC
:1005200021FA02F3D040C2F120029140084319465B
:100530007047202A06DBCB17203A41FA02F043EA43
:10054000E07306E041FA02F3D040C2F1200291408C
:1005500008431946704710B5141E73F1000408DAF9
:10056000401C41F1000192185B411A4301D120F077
:10057000010010BD2DE9F04D92469B4611B1B1FA34
:1005800081F202E0B0FA80F220329046FFF7B2FF2B
:1005900004460F4640EA0A0041EA0B0153465A4618
:1005A000084313D0114653EA010019D0C8F14002A4
:1005B0005046FFF7AEFF05460E46504659464246A6
:1005C000FFF798FF084305D0012004E02046394694
:1005D000BDE8F08D0020054346EAE0762C43374322
:1005E0000A986305E40AA0EB08000022FD0A44EA29
:1005F00047540A3002D500200146E9E701051019E9
:100600006941DDE9084500196941BDE8F04DA2E7FF
:10061000064C074D06E0E06840F0010394E807004F
:1006200098471034AC42F6D3FFF764FDF02300087E
:10063000102400082DE9F04107468846154604219C
:10064000052000F02DF80021012000F067FE802138
:100650000A2000F0D9FC002405E0395D092000F0F3
:100660005DFE601CC4B24445F7DB0321012000F0AD
:1006700055FEFF2400BF052000F0B2FB0646601EB9
:10068000C4B21CB106F004000028F4D0222000F00F
:10069000A7FB2870212000F0A3FB6870BDE8F08163
:1006A00070B505460C460026284600F099FB064624
:1006B00026EA0401284600F031FE70BD70B5002422
:1006C00014E004F1B00000F051FD102000F04EFDE8
:1006D000002000F04BFD002504E0002000F086FD26
:1006E000681CC5B2842DF8DB601CC4B2092CE8DBA1
:1006F00070BD000010B5002000F096FF00200449F6
:10070000087004490880044908700449087010BD45
:100710001B000020080000200A0000200B00002021
:1007200000B500F089FB00F091FA00F009F900F043
:100730000DF9412000F092F800BD70B505460C4659
:10074000641E05F1AF0000F011FDC4F3031101F1C7
:10075000100000F00BFD04F00F0000F007FD70BD6D
:100760001348806940F00800114988611148006809
:1007700080B210490860084600680F4908430D49D7
:100780000860081D006800F47F60091D08600846C5
:1007900000680A4908430749091D086005480C30EC
:1007A000006840F4006003490C31086070470000A5
:1007B00000100240000C014000003383033033334B
:1007C00010B5FFF7CDFF2448006820F4807022495F
:1007D0000860642000F0FCFD1F48006840F4807051
:1007E0001D490860642000F0F3FDE22000F0BEFC2B
:1007F000052000F0EDFD2C2000F0B8FC322000F0C8
:10080000E7FD2E2000F0B2FC322000F0E1FD2F20A9
:1008100000F0ACFC052000F0DBFD232000F0A6FC7E
:10082000812000F0A3FC282000F0A0FCA22000F012
:100830009DFCC82000F09AFCA02000F097FC40200E
:1008400000F094FCAF2000F091FC642000F0C0FDAB
:10085000FFF734FF10BD00000C0C014010B504463A
:10086000412C26D108210846FFF71AFF3D2111200F
:1008700000F054FD8621172000F050FD7F21262036
:1008800000F04CFD1E212D2000F048FD00212C2001
:1008900000F044FD8D212A2000F040FD3E212B2058
:1008A00000F03CFD4FF47A7001F06EF800F04EF865
:1008B00001E0012010BD0020FCE7000070B5002120
:1008C00000230F22C47804B3154C246804F4E064B8
:1008D000C4F5E064210AC1F10403CA40447804FA73
:1008E00003F184781440214309010E4C0678A15588
:1008F000047804F01F050124AC4005786D11AD00AB
:1009000005F1E025C5F8004109E0047804F01F0571
:100910000124AC40044D0678761145F8264070BDA0
:100920000CED00E000E400E080E100E0024901435A
:10093000024A1160704700000000FA050CED00E06B
:1009400000B503211420FFF7ABFE00BD10B5142045
:1009500000F046FA044604F0030018B903211420FD
:1009600000F052FB10BDF0B587B005460027082106
:100970000846FFF795FE00210D2000F0CFFC8021F6
:100980000E20FFF78DFE93208DF8040020208DF8B7
:10099000050006A801AB022201A900900C2000F07E
:1009A00045F8064686B9002407E001A8005D2855F1
:1009B00001A8005D4740601CC4B2042CF5DB01A80F
:1009C000005DB84200D0022680210E2000F01CFB02
:1009D000304607B0F0BD2DE9F04187B004460D4622
:1009E00016461F468DF804408DF805503068CDF846
:1009F0000600B088ADF80A003868039006A801AB7D
:100A00000C2201A900900E2000F010F88046B8F1E9
:100A1000000F05D1082000F0E3F900F0080008B944
:100A20004FF00208404607B0BDE8F0812DE9FE4FC7
:100A30000646884691469A46DDF830B0022002907C
:100A40000020019000900C2E06D00E2E09D112200D
:100A500001901020009005E0772001903020009058
:100A600000E000BF00BF019840F08001022000F0CC
:100A700055FC80210420FFF713FE0021012000F027
:100A80004DFC80210A2000F0BFFA002506E018F88E
:100A90000510092000F042FC681C85B24D45F6DBCC
:100AA0003146012000F03AFC0C2E03D180210D20AC
:100AB00000F0AAFA4FF4167500BF042000F090F978
:100AC0000446681E85B235B104F0010018B90098DB
:100AD00020400028F1D080210D20FFF7E1FD002DFE
:100AE00038D0062000F07CF900F01B0078BB002015
:100AF00002900198204000F0010008B1012002900E
:100B00000C2E27D10A2000F06BF904460C2000F0CF
:100B100067F900F007072FB1601E07EBC0008BF8E4
:100B2000000003E0E006000E8BF8000004B9012489
:100B3000122C00DD1224002506E0092000F050F9F7
:100B40000AF80500681C85B2A542F6DB02E0FFE763
:100B50000220029080210C2000F056FA0021012092
:100B600000F0DCFB0298BDE8FE8F10B587B0502086
:100B70008DF8040000208DF805000DF10602022119
:100B800001A8FFF757FD06A801AB042201A90090B8
:100B90000C20FFF74BFF0446204607B010BDF0B510
:100BA00087B005460E4630208DF804008DF80550BC
:100BB0000DF10602022101A8FFF73CFD06A801ABDA
:100BC000042201A900900C20FFF730FF07466FB9FF
:100BD0009DF81800902809D1002404E001A8005DC8
:100BE0003055601CC4B2102CF8DB00E002273846F8
:100BF00007B0F0BD70B587B005460C460821084621
:100C0000FFF74EFD07210D2000F088FB0321142083
:100C100000F0FAF98DF8045006A801AB012201A9F1
:100C200000900C20FFF702FF064656B99DF8180009
:100C3000102806D19DF8040020709DF80500607012
:100C400000E00226304607B070BD000000B51E4827
:100C5000006840F002001C4908600A2000F094FE81
:100C60001948006820F00200174908600A2000F0C7
:100C70008BFE1548006840F00200134908600A2006
:100C800000F082FE0F21012000F048FB0A2000F056
:100C90007BFE3D21112000F041FB1E212D2000F0A4
:100CA0003DFB00212C2000F039FB8D212A2000F093
:100CB00035FB3E212B2000F031FB4021152000F0B8
:100CC0002DFB002000BD00000C0C014070B587B06A
:100CD000054693208DF8040070208DF80500002053
:100CE0008DF80A0000240BE0295D01AAA01C115414
:100CF0009DF80A00295D48408DF80A00601CC4B2C6
:100D0000042CF1DB0DF10B02072101A8FFF792FC87
:100D100008210846FFF7C4FC06A801AB092201A977
:100D200000900C20FFF782FE06462EB99DF81800B1
:100D3000182801D1002600E00226304607B070BD19
:100D4000F0B587B006460F46A0208DF804008DF858
:100D500005600DF10602022101A8FFF76BFC06A851
:100D600001AB042201A900900C20FFF75FFE0546AD
:100D70004DB99DF81800042805D19DF8040000F035
:100D80000F000A2800D0022515BB002404E0385DBE
:100D900001A90855601CC4B2102CF8DB05AA10216B
:100DA00001A8FFF747FC06A801AB122201A9009099
:100DB0000C20FFF73BFE05464DB99DF818000428AE
:100DC00005D19DF8040000F00F000A2800D002258C
:100DD000284607B0F0BD10B500F004FD10BD0000BE
:100DE00070B5044600267E2000EA440040F08005ED
:100DF0000C48006840F010000A4908600846006886
:100E000020F010000860284600F07CF8002000F078
:100E100079F806460348006840F010000149086070
:100E2000304670BD0C08014010B5A02000F0ACFCAD
:100E3000FFF7D1FF10BD00002D48806940F48050BD
:100E40002B4988610846806940F00800886108469F
:100E5000806940F0040088612648006880B2254916
:100E60000860084600682449084322490860214870
:100E70000C30006840F0E0001E490C3108601F484B
:100E8000006820F0F0001D4908600846006840F046
:100E9000300008601A480088194908800846008810
:100EA00040F4007008800846008840F48070088094
:100EB0000846008840F00400088008460088088042
:100EC0000846008820F0020008800846008820F0CC
:100ED000010008800846008840F038000880084675
:100EE000008808800846008840F04000088070476D
:100EF00000100240000801400000B3BB000C01409C
:100F00000030014010B50446002307E0581C83B2AE
:100F10004FF6FE70834201D1002010BD0F480089BA
:100F200000F002000028F1D00C488481002307E083
:100F3000581C83B24FF6FE70834201D10020ECE7CB
:100F40000648008900F001000028F1D01E2000F0C2
:100F50001BFD02488089C0B2DFE70000003001407D
:100F6000214A926942F008021F4B9A611A4692691F
:100F700042F001029A611D4A126822F470621B4B12
:100F80001A601A46126842F430621A60184A5268AF
:100F900022F44072164B5A601A46526842F40072AC
:100FA0005A60114AD26942F001020F4BDA619A0489
:100FB00090851185928B42F070029B049A831A46A9
:100FC000928B42F008029A831A46128C42F4807285
:100FD0001A8480221A80D205128842F001021A80F7
:100FE00044F670129A87704700100240040C0140CA
:100FF0000000014044F2245001078887704744F6FE
:10100000FA3041078887704770B505460C460026C0
:101010002846FFF7E5FE064646EA0401284600F0AA
:101020007DF970BD10B500F001F810BD0CB50020C1
:10103000019000903348006840F4803031490860E6
:1010400000BF3048006800F4003000900198401C58
:101050000190009818B90198B0F5A06FF1D1294816
:10106000006800F4003010B10120009001E0002081
:1010700000900098012843D12348006840F01000F8
:10108000214908600846006820F00300086008460F
:10109000006840F0020008601A484068194948603A
:1010A0000846406848600846406840F480604860F0
:1010B0000846406820F47C1048600846406840F4C8
:1010C000E81048600846006840F08070086000BF83
:1010D0000C48006800F000700028F9D0094840680A
:1010E00020F00300074948600846406840F00200CD
:1010F000486000BF0348406800F00C000828F9D1A0
:101100000CBD0000001002400020024010B5134842
:10111000006840F001001149086008464068104925
:1011200008400E494860084600680E4908400B49CF
:1011300008600846006820F480200860084640687F
:1011400020F4FE0048604FF41F008860FFF76AFF3C
:101150004FF000600449086010BD0000001002401C
:101160000000FFF8FFFFF6FE08ED00E070B5044652
:101170001D48006820F400401B49086008460068CC
:1011800020F480500860002524E01748006820F40F
:101190008040154908600A2000F070F904F08000D2
:1011A00030B11148006840F400500F49086005E074
:1011B0000D48006820F400500B4908600A48006898
:1011C00040F48040084908600A2000F057F96400A4
:1011D000681CC5B2082DD8DB0348006840F4004005
:1011E0000149086070BD00000C0C0140194A1268EA
:1011F00022F40042174B1A601A46126842F48052D9
:101200001A6000211DE0134A126822F48042114B3B
:101210001A6000F080022AB11A46126842F40052A5
:101220001A6005E00B4A126822F40052094B1A605A
:10123000084A126842F48042064B1A6040004A1C79
:10124000D1B20829DFDB034A126842F40042014BA5
:101250001A6070470C0C014000BF0649098801F074
:1012600080010029F9D0C0F30801024A121D118043
:1012700070470000003801400F48008800F020004F
:10128000C8B10D48001D00880C490D4A12888854C9
:101290000B480088401C0A4908800888C11700EBE9
:1012A00011610912A0EB0121054A1180054800884F
:1012B000401C044908807047003801409600002017
:1012C00036000020380000201048008800F0200080
:1012D000D0B10E48001D00880D490E4A128888546E
:1012E0000C480088401C0B4908800B480088401CB3
:1012F0000949088007490888C11700EB11610912E4
:10130000A0EB0121034A1180704700000044004017
:1013100096010020400000204200002070B50446E5
:101320000D467E2000EA44060B48006840F010009D
:10133000094908600846006820F01000086030463F
:10134000FFF7E0FD2846FFF7DDFD0348006840F0A9
:1013500010000149086070BD0C0801400FB4054B36
:1013600010B503A9044A029800F0B4F810BC5DF867
:1013700014FB00009B1900084400002002E008C88C
:10138000121F08C1002AFAD170477047002001E0FF
:1013900001C1121F002AFBD17047000000214FF04D
:1013A000E0221161C0F3CF01074A1180114609887C
:1013B00001EB4102C2EBC1114FF6FF7202EAC1011B
:1013C000024A1180704700003A0000203C000020D3
:1013D00008B500210091B0F5E16F01D94FF4E1604B
:1013E0001549098848434FF0E021096921F00101BE
:1013F0004FF0E022116111464861002191611146D0
:10140000096941F00101116100BF4FF0E021096954
:101410000091009901F4803121B9009901F0010196
:101420000029F2D14FF0E021096921F001014FF0CC
:10143000E022116108BD00003C0000202DE9F041D0
:1014400005460E4600220C4B28463146FEF735FF76
:101450000746FFF720F8044605E04FF4E160FFF788
:10146000B7FFA4F5E164B4F5E16FF6D82046FFF7C5
:10147000AFFFBDE8F081000000408F4008B50021BB
:1014800000914FF0E021096921F001014FF0E022C5
:10149000116111464861002191611146096941F0CD
:1014A0000101116100BF4FF0E0210969009100992D
:1014B00001F4803121B9009901F001010029F2D134
:1014C0004FF0E021096921F001014FF0E0221161A4
:1014D00008BD00002DE9FF4F89B09B46044600255A
:1014E00006E025280BD05A460B999047641C6D1CCA
:1014F00020780028F5D10DB02846BDE8F08F0027F0
:10150000B8460122474900E0074314F8013F203B59
:1015100002FA03F00842F7D120782E2819D114F8E6
:10152000010F47F004072A280ED06FF02F02207811
:10153000A0F1300109290CD808EB880102EB410128
:1015400000EB0108641CF2E70A98641C50F8048B55
:101550000A9020780028CED0642808D0692806D0C8
:1015600075281ED05A460B9990476D1C58E00A9971
:101570004FF00A0901C90A91002802DA40422D21E0
:1015800002E0390504D52B218DF82010012103E05C
:10159000F90704D02021F7E78A4608AE0DE00021C4
:1015A000FAE70A994FF00A0901C90A91F7E7494693
:1015B000FEF78AFF303106F8011D0028F7D1ADEBA8
:1015C000060000F12009780701D44FF00108C84552
:1015D00002DDA8EB090000E000208046002706E0BD
:1015E00008A85A46C05D0B9990476D1C7F1C574553
:1015F000F6DB04E030205A460B9990476D1CB8F199
:101600000001A8F10108F5DC05E016F8010B5A46C7
:101610000B9990476D1CB9F10001A9F10109F4DCA7
:10162000641C65E709280100072800DD70470828C9
:101630005BD2DFE800F0040B17232F3B47532C4904
:10164000096841F4C8512A4A11604EE028490968E6
:1016500041F4C051264A11601146096821F4807195
:10166000116042E02249096841F48851204A116022
:101670001146096821F40061116036E01C490968CF
:1016800041F410611A4A11601146096821F4805131
:1016900011602AE01649096841F48051144A11602A
:1016A0001146096821F4106111601EE010490968B3
:1016B00041F400610E4A11601146096821F4885115
:1016C000116012E00A49096841F48071084A11600A
:1016D0001146096821F4C051116006E00449096807
:1016E00021F4C851024A116000BF00BF00BF9DE74E
:1016F0000C0801401248806940F0050010498861DB
:101700001048406840F000700E4948600E4800687C
:101710000E4908400C490860084600680C49084317
:101720000949086008480830006820F4004006496C
:10173000083108600846006840F4C85008607047E7
:10174000001002400000014004080140F00FF00FBB
:101750000330033030B501460B780A46C878001DC7
:10176000C5B2521C012404E010784340521C601C96
:10177000C4B2AC42F8DB91F82200984201D10020BB
:1017800030BD0120FCE7000010B50446FEF7B2FFB3
:10179000A02C06D0A12C08D0A22C0DD0A32C19D19E
:1017A00011E0A5200D49087015E0A1200B49087033
:1017B00004200B4908800EE0A2200849087004208C
:1017C0000749088007E0A32004490870072004495E
:1017D000088000E000BF00BF10BD00000A0000202C
:1017E0000800002070B5FFF731FA5A492620FFF7AC
:1017F00001FA054605B170BD5648801CFFF7B3F8E5
:10180000054605B1F7E754485249D1F80210016086
:10181000FFF75CFA054605B1EDE750480078A328CC
:101820001DD100204D4908704D4801784A4B4D4A62
:101830006020FFF7D0F8054605B1DCE74849087895
:101840004949FFF77DFA054605B1D4E7FFF78DF961
:101850000720FFF7E9FE01204449087077E03F4880
:101860000078A12827D100203C4908703C48017825
:10187000394B3C4A6020FFF7AEF8054605B1BAE7A0
:10188000374908783A49FFF78AF9054605B1B2E7C2
:10189000002405E03649085DFFF7DEFC601CC4B299
:1018A000102CF7DBFFF761F90720FFF7BDFE0120E1
:1018B0002E4908704BE029480078A22827D1002043
:1018C0002649087026480178234B264A6020FFF7F6
:1018D00082F8054605B18EE7214908782549FFF7CA
:1018E0002FFA054605B186E7002405E02149085D89
:1018F000FFF7B2FC601CC4B2102CF7DBFFF735F920
:101900000720FFF791FE0120184908701FE01348D7
:101910000078A5281BD100201049087000240AE097
:101920000D48005D144908550846015D13A0FFF7F6
:1019300015FD601CC4B2042CF2DBFFF716F907207A
:10194000FFF772FE0120094908700E49087000BFB8
:1019500051E7000068000020120000200A0000206B
:10196000080000200C000020860000201B00002042
:1019700048000020580000201600002049443D2562
:10198000640A00001A000020002103E000BF00BF2D
:1019900000BF491C8142F9D3704770B504460D461B
:1019A000E0B200F021FA204670BD00002DE9F047BA
:1019B00004460E4617461B48006820F020001949CF
:1019C0000860032000F01EFAC4F3074000F01AFA82
:1019D000C4F3072000F016FAE0B200F013FA002575
:1019E00015E070193946FEF7A8FE4FF0000809E02F
:1019F00000F058F881464846FFF7F8FB08F101006F
:101A000000F0FF08B8F1100FF2DB681CC5B2022D20
:101A1000E7DB0448006840F0200002490860BDE8A8
:101A2000F08700000C0C01402DE9F04704460E46FB
:101A300017461B48006820F0200019490860032061
:101A400000F0E0F9C4F3074000F0DCF9C4F307202C
:101A500000F0D8F9E0B200F0D5F9002515E07019D2
:101A60003946FEF76AFE4FF0000809E000F01AF868
:101A700081464846FFF7BAFB08F1010000F0FF0875
:101A8000B8F1080FF2DB681CC5B2022DE7DB044891
:101A9000006840F0200002490860BDE8F0870000BF
:101AA0000C0C014070B5002400251FE011480068AF
:101AB00020F010000F4908600120FFF7DFFC6006EE
:101AC000040E0C48001F0068C0F3C01010B1601C69
:101AD000C4B200E0E4B20748006840F010000549D5
:101AE00008600120FFF7CAFC681CC5B2082DDDDBC9
:101AF000204670BD0C0C01408AB04FF4A060FEF788
:101B000015FFFFF7F7FD4FF46141482000F0ACFAF4
:101B10004FF46141242000F0BBFB4820FFF73EFC5E
:101B20004FF47A71482000F01FFA472144F62060F4
:101B3000FFF716FAFEF7F4FDFEF7DCFDFEF740FEB8
:101B4000FEF7BCFD0020404908700220FFF76CFD45
:101B50003EA22121012000F085F93FA2222103208D
:101B600000F080F96FE0FEF7A9FD38A221210120E5
:101B700000F078F938A22221032000F073F939A28D
:101B80002721052000F06EF901A800F083F8044633
:101B9000002C42D19DF8060001280DD19DF80800C7
:101BA00001283AD1FFF72BFA00204FF08041FFF7D0
:101BB00045FCFFF71FFA30E09DF8060003282CD102
:101BC0009DF8080001281AD1FEF778FD27A22221EE
:101BD000032000F047F9FFF712FA00204FF0804190
:101BE000FFF72CFCFFF706FA18A22121012000F0D4
:101BF00039F919A22221032000F034F90AE09DF8F6
:101C00000800022806D1FEF759FD1CA2222103205C
:101C100000F028F900200C4908700B48007810B932
:101C2000FFF702F90BE008480078012807D1184BAC
:101C30000422032100F07AF80220034908704FF4CF
:101C40007A70FFF7C5FB8EE71A00002020666F72DE
:101C50007761726400000000BBB6D3ADB9E2C1D9B0
:101C600000000000C7EBCBA2BFA80000BBB6D3ADFD
:101C7000B9E2C1D920C7EBBDF8000000CAB6B1F087
:101C8000CAA7B0DC20C7EBD6D8D0C2CBA2BFA80071
:101C90001600002030B58DB005460121684600F0E1
:101CA00083FAC4B214B901200DB030BD2146684694
:101CB00000F08CF89DF80000BB2803D19DF80100CE
:101CC000AA2801D00220EFE79DF80600062804D0DC
:101CD0009DF8060008B10320E6E724212846FEF718
:101CE0003AFAE21E0DF105012846FEF71BFAE01E46
:101CF0001DF8000085F82200A01E1DF8000085F8E0
:101D000023002846FFF726FD08B10420CCE72878F9
:101D1000032806D1044B0122002100F007F805201A
:101D2000C2E70020C0E70000000000202DE9F043DA
:101D30008DB00746884615461E464FF0060988EACC
:101D40000700684080EA0909AA208DF80000BB203E
:101D50008DF8010000208DF802001A4800788DF8F7
:101D60000300194800788DF804008DF805700620EE
:101D70008DF806008DF807808DF8085000240AE0E1
:101D8000317804F109000DF80010307880EA090973
:101D9000761C601CC4B2AC42F2DB04F109000DF801
:101DA0000090EE21401C0DF80010FF21401C0DF8A2
:101DB0000010411C684600F005FB00200DB0BDE896
:101DC000F0830000010000200200002010B5024650
:101DD0000B46002405E0107800F006F8521C601C49
:101DE00084B29C42F7DB10BD00BF0549098801F0B1
:101DF00080010029F9D00249091D088070470000C0
:101E00000038014070B50446002525E014480068FC
:101E100020F01000124908600A20FFF72FFB04F0A1
:101E2000800030B10E48006840F040000C49086066
:101E300005E00B48006820F0400009490860600692
:101E4000040E0748006840F01000054908600A20A9
:101E5000FFF714FB681CC5B2082DD7DB70BD00006E
:101E60000C0C01402DE9F04107460E4615460024B2
:101E700070E0285DB02824DB285DF72821DC601C99
:101E8000285CA1281DDB285DB0385E214843344919
:101E90000860601C285C00F2AD20096808443049E5
:101EA00008600846006840010860324639462C4800
:101EB0000068FFF77BFDA01CC4B206F11000C6B29B
:101EC00048E0285DA12823DB285DA32820DC601CD6
:101ED000285CA1281CDB285DA1385E2148432049ED
:101EE0000860601C285CA138096808441C49086027
:101EF00008460068400108603246394618480068C4
:101F0000FFF754FDA01CC4B206F11000C6B221E0D8
:101F1000285D20281CDB285D7E2819DC285D203800
:101F20000F4908600846006800010860084600681C
:101F30000C4908440A490860324639460848006896
:101F4000FFF772FD601CC4B206F10800C6B201E0E2
:101F5000601CC4B2285D00288BDCBDE8F081000065
:101F60003000002080CF0300384A926942F00C0212
:101F7000364B9A611A46D26942F00602DA61344A57
:101F8000126822F07062324B1A601A46126842F0F0
:101F900030621A602F4A12682F4B1A402D4B1A607C
:101FA0001A4612682D4B1A432A4B1A60421E2C4BBC
:101FB0001A802C4B1A802A4A121D11801A1D11807A
:101FC000274A103A128842F06802254B103B1A80CB
:101FD0001A1D128846F668031A43214B0C3B1A80DF
:101FE000204A103A128842F068021E4B103B1A80B9
:101FF00000221B4B0C331A80194B14331A801B1D03
:102000001A80184B0C331A80154A083A128841F28C
:1020100001131A43124B083B1A80124A083A1288DD
:1020200042F001020F4B083B1A800D4A283A1288F1
:1020300042F081020A4B283B1A800A4A283A128849
:1020400042F08102074B283B1A8070470010024083
:1020500000080140000C014000FFFFF0BB00000B36
:1020600028040040280800402DE9F34F85B08B4636
:102070004FEA0B10FEF702FA06460F460598FEF7E8
:10208000FDF980460022424BFEF717F932463B46E7
:10209000CDE90001FEF783F904460D4620462946A6
:1020A000FEF7F9F91FFA80FA5046FEF7E7F90646FF
:1020B00022462B46FEF7FEF80022364BCDE9000102
:1020C000FEF7FBF88046FEF7E6F980B20290029830
:1020D0006AF31F101FFA80FA2F48806944F2040146
:1020E00008432D4988610846406940F00100486175
:1020F0002A48006820F47F60284908600846006884
:1021000040F40B60086025480830006840F48060A7
:102110002249083108602248A0F800A0001D00886C
:1021200040F00C001E49091D08800846008840F454
:10213000005008800846008840F0200008801848B9
:102140000C30008840F0800015490C31088014489C
:10215000001F1449C8640020086588644864084664
:10216000406C41F2900108430E49486425208DF8E7
:102170000C0003208DF80D008DF80E0001208DF865
:102180000F0003A8FEF79AFB07B0BDE8F08F000030
:1021900080842E41000030400010024004080140BD
:1021A0000838014000000240F0B502460C463448B1
:1021B0000388008808B90020F0BDF4B90020304E33
:1021C0003080002115E02F482F4E3688805D10703A
:1021D000521C2D480088401C2B4E30803088C6177A
:1021E00000EB16663612A0EB0626274F3E80481CF1
:1021F00081B29942E7DB1846DEE72348018800BF39
:102200000846CE1701EB16663612A1EB0626B1B2D0
:102210001C48405CEE2806D11A4E481C305CFF2852
:1022200001D1012507E019480088814200D102E070
:10223000481C81B2E4E700BF0DB90020BCE710489C
:10224000038800200E4E3080002115E00D480E4E10
:102250003688805D1070521C0B480088401C0A4E66
:1022600030803088C61700EB16663612A0EB0626C3
:10227000054F3E80481C81B29942E7DB18469BE738
:1022800042000020960100203E0000204000002077
:102290002DE9F04F85B081468A46444809FB00F09D
:1022A0004FEA0A11B0FBF1F73846FEF7E7F80546AA
:1022B0000E4628463146FEF7EEF884B22046FEF779
:1022C000DDF82A463346CDE90001FDF7F3FF002291
:1022D000374BCDE90201FDF7F0FF0746FEF7DBF8CB
:1022E0008346584664F31F1084B23248806940F038
:1022F0000400304988610846C06940F40030C86174
:102300000846406940F0010048612B48006820F40D
:102310007F40294908600846006840F40B40086087
:1023200025480C30006840F0080023490C31086053
:1023300022480480001D008842F22C0108431F49F6
:10234000091D08801D480C30008840F080001B49A2
:102350000C31088000201A4908601848001F1849ED
:102360008039C1F88800002015490C3108601449F3
:102370008039C1F884001248006842F29001084395
:102380000F498039C1F8800026208DF81000022006
:102390008DF8110003208DF8120001208DF8130034
:1023A00004A8FEF78BFA05B0BDE8F08F40420F009D
:1023B0000000304000100240000801400844004086
:1023C00080000240094A126822F00102074B803B5C
:1023D000C3F880201A46C2F88C00C2F88410D2F8E4
:1023E000802042F00102C3F8802070478000024044
:1023F0001024000800000020480000007C130008A2
:102400005824000848000020500600008C130008E3
:1024100000FFFF000000000000000000FFFFFFFFC2
:10242000FFFF0000000000000000000000000000AE
:10243000000000000000000034B21EEB00000000AD
:10244000000000000000000000000000000000008C
:08245000000000000000000084
:04000005080000ED02
:00000001FF
